{
	"src/CharityRaffle.sol": {
		"CharityRaffle": {
			"abi": [
				{
					"inputs": [],
					"name": "InsufficientFunds",
					"type": "error"
				},
				{
					"inputs": [],
					"name": "InsufficientValue",
					"type": "error"
				},
				{
					"inputs": [],
					"name": "InvalidInitialization",
					"type": "error"
				},
				{
					"inputs": [],
					"name": "InvalidProof",
					"type": "error"
				},
				{
					"inputs": [],
					"name": "InvalidRandomWords",
					"type": "error"
				},
				{
					"inputs": [],
					"name": "InvalidRequest",
					"type": "error"
				},
				{
					"inputs": [],
					"name": "NotAWinner",
					"type": "error"
				},
				{
					"inputs": [],
					"name": "NotInitializing",
					"type": "error"
				},
				{
					"inputs": [
						{
							"internalType": "address",
							"name": "have",
							"type": "address"
						},
						{
							"internalType": "address",
							"name": "want",
							"type": "address"
						}
					],
					"name": "OnlyCoordinatorCanFulfill",
					"type": "error"
				},
				{
					"inputs": [
						{
							"internalType": "address",
							"name": "have",
							"type": "address"
						},
						{
							"internalType": "address",
							"name": "owner",
							"type": "address"
						},
						{
							"internalType": "address",
							"name": "coordinator",
							"type": "address"
						}
					],
					"name": "OnlyOwnerOrCoordinator",
					"type": "error"
				},
				{
					"inputs": [
						{
							"internalType": "address",
							"name": "owner",
							"type": "address"
						}
					],
					"name": "OwnableInvalidOwner",
					"type": "error"
				},
				{
					"inputs": [
						{
							"internalType": "address",
							"name": "account",
							"type": "address"
						}
					],
					"name": "OwnableUnauthorizedAccount",
					"type": "error"
				},
				{
					"inputs": [],
					"name": "TransferFailed",
					"type": "error"
				},
				{
					"inputs": [],
					"name": "VRFRequestAlreadyMade",
					"type": "error"
				},
				{
					"inputs": [],
					"name": "WinnersNotSelected",
					"type": "error"
				},
				{
					"inputs": [],
					"name": "ZeroAddress",
					"type": "error"
				},
				{
					"anonymous": false,
					"inputs": [
						{
							"indexed": false,
							"internalType": "uint256",
							"name": "amount",
							"type": "uint256"
						}
					],
					"name": "CharityWithdrawal",
					"type": "event"
				},
				{
					"anonymous": false,
					"inputs": [
						{
							"indexed": false,
							"internalType": "address",
							"name": "vrfCoordinator",
							"type": "address"
						}
					],
					"name": "CoordinatorSet",
					"type": "event"
				},
				{
					"anonymous": false,
					"inputs": [
						{
							"indexed": false,
							"internalType": "uint64",
							"name": "version",
							"type": "uint64"
						}
					],
					"name": "Initialized",
					"type": "event"
				},
				{
					"anonymous": false,
					"inputs": [
						{
							"indexed": true,
							"internalType": "address",
							"name": "previousOwner",
							"type": "address"
						},
						{
							"indexed": true,
							"internalType": "address",
							"name": "newOwner",
							"type": "address"
						}
					],
					"name": "OwnershipTransferred",
					"type": "event"
				},
				{
					"anonymous": false,
					"inputs": [
						{
							"indexed": true,
							"internalType": "address",
							"name": "winner",
							"type": "address"
						}
					],
					"name": "PrizeClaimed",
					"type": "event"
				},
				{
					"anonymous": false,
					"inputs": [
						{
							"indexed": false,
							"internalType": "uint256",
							"name": "requestId",
							"type": "uint256"
						}
					],
					"name": "RandomnessRequested",
					"type": "event"
				},
				{
					"anonymous": false,
					"inputs": [
						{
							"indexed": true,
							"internalType": "address",
							"name": "buyer",
							"type": "address"
						},
						{
							"indexed": false,
							"internalType": "uint256",
							"name": "quantity",
							"type": "uint256"
						}
					],
					"name": "TicketPurchased",
					"type": "event"
				},
				{
					"anonymous": false,
					"inputs": [
						{
							"indexed": false,
							"internalType": "address[]",
							"name": "winners",
							"type": "address[]"
						}
					],
					"name": "WinnersSelected",
					"type": "event"
				},
				{
					"inputs": [],
					"name": "DENOMINATOR",
					"outputs": [
						{
							"internalType": "uint256",
							"name": "",
							"type": "uint256"
						}
					],
					"stateMutability": "view",
					"type": "function"
				},
				{
					"inputs": [
						{
							"internalType": "uint256",
							"name": "_qty",
							"type": "uint256"
						},
						{
							"internalType": "bytes32[]",
							"name": "_proof",
							"type": "bytes32[]"
						}
					],
					"name": "buyTicket",
					"outputs": [],
					"stateMutability": "payable",
					"type": "function"
				},
				{
					"inputs": [],
					"name": "charityFunds",
					"outputs": [
						{
							"internalType": "uint256",
							"name": "",
							"type": "uint256"
						}
					],
					"stateMutability": "view",
					"type": "function"
				},
				{
					"inputs": [],
					"name": "charityWallet",
					"outputs": [
						{
							"internalType": "address",
							"name": "",
							"type": "address"
						}
					],
					"stateMutability": "view",
					"type": "function"
				},
				{
					"inputs": [],
					"name": "claimCharityFunds",
					"outputs": [],
					"stateMutability": "nonpayable",
					"type": "function"
				},
				{
					"inputs": [],
					"name": "claimPrize",
					"outputs": [],
					"stateMutability": "nonpayable",
					"type": "function"
				},
				{
					"inputs": [
						{
							"internalType": "address",
							"name": "_owner",
							"type": "address"
						},
						{
							"internalType": "address",
							"name": "_charityWallet",
							"type": "address"
						},
						{
							"internalType": "uint256",
							"name": "_vrfSubsciptionId",
							"type": "uint256"
						},
						{
							"internalType": "bytes32",
							"name": "_vrfKeyHash",
							"type": "bytes32"
						},
						{
							"internalType": "bytes32",
							"name": "_merkleRoot",
							"type": "bytes32"
						}
					],
					"name": "initialize",
					"outputs": [],
					"stateMutability": "nonpayable",
					"type": "function"
				},
				{
					"inputs": [],
					"name": "merkleRoot",
					"outputs": [
						{
							"internalType": "bytes32",
							"name": "",
							"type": "bytes32"
						}
					],
					"stateMutability": "view",
					"type": "function"
				},
				{
					"inputs": [],
					"name": "numOfWinners",
					"outputs": [
						{
							"internalType": "uint256",
							"name": "",
							"type": "uint256"
						}
					],
					"stateMutability": "view",
					"type": "function"
				},
				{
					"inputs": [],
					"name": "owner",
					"outputs": [
						{
							"internalType": "address",
							"name": "",
							"type": "address"
						}
					],
					"stateMutability": "view",
					"type": "function"
				},
				{
					"inputs": [
						{
							"internalType": "uint256",
							"name": "",
							"type": "uint256"
						}
					],
					"name": "participants",
					"outputs": [
						{
							"internalType": "address",
							"name": "",
							"type": "address"
						}
					],
					"stateMutability": "view",
					"type": "function"
				},
				{
					"inputs": [],
					"name": "pricePersentageBPS",
					"outputs": [
						{
							"internalType": "uint256",
							"name": "",
							"type": "uint256"
						}
					],
					"stateMutability": "view",
					"type": "function"
				},
				{
					"inputs": [
						{
							"internalType": "uint256",
							"name": "requestId",
							"type": "uint256"
						},
						{
							"internalType": "uint256[]",
							"name": "randomWords",
							"type": "uint256[]"
						}
					],
					"name": "rawFulfillRandomWords",
					"outputs": [],
					"stateMutability": "nonpayable",
					"type": "function"
				},
				{
					"inputs": [],
					"name": "renounceOwnership",
					"outputs": [],
					"stateMutability": "nonpayable",
					"type": "function"
				},
				{
					"inputs": [],
					"name": "requestRandomWinners",
					"outputs": [],
					"stateMutability": "nonpayable",
					"type": "function"
				},
				{
					"inputs": [],
					"name": "s_vrfCoordinator",
					"outputs": [
						{
							"internalType": "contract IVRFCoordinatorV2Plus",
							"name": "",
							"type": "address"
						}
					],
					"stateMutability": "view",
					"type": "function"
				},
				{
					"inputs": [
						{
							"internalType": "address",
							"name": "_vrfCoordinator",
							"type": "address"
						}
					],
					"name": "setCoordinator",
					"outputs": [],
					"stateMutability": "nonpayable",
					"type": "function"
				},
				{
					"inputs": [],
					"name": "ticketPrice",
					"outputs": [
						{
							"internalType": "uint256",
							"name": "",
							"type": "uint256"
						}
					],
					"stateMutability": "view",
					"type": "function"
				},
				{
					"inputs": [
						{
							"internalType": "address",
							"name": "newOwner",
							"type": "address"
						}
					],
					"name": "transferOwnership",
					"outputs": [],
					"stateMutability": "nonpayable",
					"type": "function"
				},
				{
					"inputs": [],
					"name": "vrfKeyHash",
					"outputs": [
						{
							"internalType": "bytes32",
							"name": "",
							"type": "bytes32"
						}
					],
					"stateMutability": "view",
					"type": "function"
				},
				{
					"inputs": [],
					"name": "vrfRequestId",
					"outputs": [
						{
							"internalType": "uint256",
							"name": "",
							"type": "uint256"
						}
					],
					"stateMutability": "view",
					"type": "function"
				},
				{
					"inputs": [],
					"name": "vrfSubsciptionId",
					"outputs": [
						{
							"internalType": "uint256",
							"name": "",
							"type": "uint256"
						}
					],
					"stateMutability": "view",
					"type": "function"
				},
				{
					"inputs": [],
					"name": "winnerReward",
					"outputs": [
						{
							"internalType": "uint256",
							"name": "",
							"type": "uint256"
						}
					],
					"stateMutability": "view",
					"type": "function"
				},
				{
					"inputs": [
						{
							"internalType": "address",
							"name": "",
							"type": "address"
						}
					],
					"name": "winners",
					"outputs": [
						{
							"internalType": "bool",
							"name": "",
							"type": "bool"
						}
					],
					"stateMutability": "view",
					"type": "function"
				},
				{
					"inputs": [],
					"name": "winnersSelected",
					"outputs": [
						{
							"internalType": "bool",
							"name": "",
							"type": "bool"
						}
					],
					"stateMutability": "view",
					"type": "function"
				}
			],
			"devdoc": {
				"errors": {
					"InvalidInitialization()": [
						{
							"details": "The contract is already initialized."
						}
					],
					"NotInitializing()": [
						{
							"details": "The contract is not initializing."
						}
					],
					"OwnableInvalidOwner(address)": [
						{
							"details": "The owner is not a valid owner account. (eg. `address(0)`)"
						}
					],
					"OwnableUnauthorizedAccount(address)": [
						{
							"details": "The caller account is not authorized to perform an operation."
						}
					]
				},
				"events": {
					"Initialized(uint64)": {
						"details": "Triggered when the contract has been initialized or reinitialized."
					}
				},
				"kind": "dev",
				"methods": {
					"renounceOwnership()": {
						"details": "Leaves the contract without owner. It will not be possible to call `onlyOwner` functions. Can only be called by the current owner. NOTE: Renouncing ownership will leave the contract without an owner, thereby disabling any functionality that is only available to the owner."
					},
					"transferOwnership(address)": {
						"details": "Transfers ownership of the contract to a new account (`newOwner`). Can only be called by the current owner."
					}
				},
				"version": 1
			},
			"evm": {
				"assembly": "    /* \"src/CharityRaffle.sol\":356:6061  contract CharityRaffle is OwnableUpgradeable, VRFConsumerBaseV2PlusCustom {... */\n  0x80\n  dup1\n  0x40\n  mstore\n  jumpi(tag_1, callvalue)\n  dataSize(sub_0)\n  swap1\n  dup2\n  dataOffset(sub_0)\n  dup3\n  codecopy\n  return\ntag_1:\n  0x00\n  dup1\n  revert\nstop\n\nsub_0: assembly {\n        /* \"src/CharityRaffle.sol\":356:6061  contract CharityRaffle is OwnableUpgradeable, VRFConsumerBaseV2PlusCustom {... */\n      0x80\n      dup1\n      0x40\n      mstore\n      jumpi(tag_11, iszero(lt(calldatasize, 0x04)))\n      0x00\n      dup1\n      revert\n    tag_11:\n      shr(0xe0, calldataload(0x00))\n      swap1\n      dup2\n      0x041d443e\n      eq\n      tag_13\n      jumpi\n      pop\n      dup1\n      0x1209b1f6\n      eq\n      tag_15\n      jumpi\n      dup1\n      0x18a7ea5f\n      eq\n      tag_17\n      jumpi\n      dup1\n      0x1fe543e3\n      eq\n      tag_19\n      jumpi\n      dup1\n      0x2eb4a7ab\n      eq\n      tag_21\n      jumpi\n      dup1\n      0x35c1d349\n      eq\n      tag_23\n      jumpi\n      dup1\n      0x6bd5450a\n      eq\n      tag_25\n      jumpi\n      dup1\n      0x70740ac9\n      eq\n      tag_27\n      jumpi\n      dup1\n      0x715018a6\n      eq\n      tag_29\n      jumpi\n      dup1\n      0x74552552\n      eq\n      tag_31\n      jumpi\n      dup1\n      0x7b208769\n      eq\n      tag_33\n      jumpi\n      dup1\n      0x8a89c8c9\n      eq\n      tag_35\n      jumpi\n      dup1\n      0x8b39989b\n      eq\n      tag_37\n      jumpi\n      dup1\n      0x8bc53285\n      eq\n      tag_39\n      jumpi\n      dup1\n      0x8da5cb5b\n      eq\n      tag_41\n      jumpi\n      dup1\n      0x8ea98117\n      eq\n      tag_43\n      jumpi\n      dup1\n      0x918f8674\n      eq\n      tag_45\n      jumpi\n      dup1\n      0x98617e2a\n      eq\n      tag_47\n      jumpi\n      dup1\n      0x98afca73\n      eq\n      tag_49\n      jumpi\n      dup1\n      0x9eccacf6\n      eq\n      tag_51\n      jumpi\n      dup1\n      0xb9705a03\n      eq\n      tag_53\n      jumpi\n      dup1\n      0xc7383be8\n      eq\n      tag_55\n      jumpi\n      dup1\n      0xe17901d8\n      eq\n      tag_57\n      jumpi\n      dup1\n      0xf2fde38b\n      eq\n      tag_59\n      jumpi\n      0xf9f23186\n      eq\n      tag_61\n      jumpi\n      0x00\n      dup1\n      revert\n    tag_61:\n      jumpi(tag_68, callvalue)\n      jumpi(tag_68, slt(add(not(0x03), calldatasize), 0xa0))\n      tag_67\n      tag_2\n      jump\t// in\n    tag_67:\n      calldataload(0x24)\n      sub(shl(0xa0, 0x01), 0x01)\n      dup2\n      and\n      swap1\n      dup2\n      swap1\n      sub\n      tag_68\n      jumpi\n      mload(0x00)\n      codecopy(0x00, data_e28a5566b8a884201ab44e2d991177ce8b88325e02e52cbc3da6e67b3ecf29c6, 0x20)\n      mload(0x00)\n      swap1\n      0x00\n      mstore\n      sload\n      0xff\n      dup2\n      0x40\n      shr\n      and\n        /* \"lib/openzeppelin-contracts-upgradeable/contracts/proxy/utils/Initializable.sol\":4301:4317  !$._initializing */\n      iszero\n        /* \"src/CharityRaffle.sol\":356:6061  contract CharityRaffle is OwnableUpgradeable, VRFConsumerBaseV2PlusCustom {... */\n      swap3\n      0xffffffffffffffff\n      dup3\n      and\n        /* \"lib/openzeppelin-contracts-upgradeable/contracts/proxy/utils/Initializable.sol\":4724:4740  initialized == 0 */\n      dup1\n      iszero\n        /* \"lib/openzeppelin-contracts-upgradeable/contracts/proxy/utils/Initializable.sol\":4724:4758  initialized == 0 && isTopLevelCall */\n      swap1\n      dup2\n      tag_70\n      jumpi\n        /* \"src/CharityRaffle.sol\":356:6061  contract CharityRaffle is OwnableUpgradeable, VRFConsumerBaseV2PlusCustom {... */\n    tag_71:\n      0x01\n        /* \"lib/openzeppelin-contracts-upgradeable/contracts/proxy/utils/Initializable.sol\":4788:4804  initialized == 1 */\n      eq\n        /* \"lib/openzeppelin-contracts-upgradeable/contracts/proxy/utils/Initializable.sol\":4788:4838  initialized == 1 && address(this).code.length == 0 */\n      swap1\n      dup2\n      tag_72\n      jumpi\n        /* \"src/CharityRaffle.sol\":356:6061  contract CharityRaffle is OwnableUpgradeable, VRFConsumerBaseV2PlusCustom {... */\n    tag_73:\n        /* \"lib/openzeppelin-contracts-upgradeable/contracts/proxy/utils/Initializable.sol\":4853:4866  !initialSetup */\n      iszero\n        /* \"lib/openzeppelin-contracts-upgradeable/contracts/proxy/utils/Initializable.sol\":4853:4883  !initialSetup && !construction */\n      swap1\n      dup2\n      tag_74\n      jumpi\n        /* \"src/CharityRaffle.sol\":356:6061  contract CharityRaffle is OwnableUpgradeable, VRFConsumerBaseV2PlusCustom {... */\n    tag_75:\n        /* \"lib/openzeppelin-contracts-upgradeable/contracts/proxy/utils/Initializable.sol\":4849:4940  if (!initialSetup && !construction) {... */\n      pop\n      tag_76\n      jumpi\n      not(0xffffffffffffffff)\n        /* \"src/CharityRaffle.sol\":356:6061  contract CharityRaffle is OwnableUpgradeable, VRFConsumerBaseV2PlusCustom {... */\n      dup3\n      and\n      0x01\n      or\n      mload(0x00)\n      codecopy(0x00, data_e28a5566b8a884201ab44e2d991177ce8b88325e02e52cbc3da6e67b3ecf29c6, 0x20)\n      mload(0x00)\n      swap1\n      0x00\n      mstore\n      sstore\n        /* \"lib/openzeppelin-contracts-upgradeable/contracts/proxy/utils/Initializable.sol\":6959:6960  _ */\n      tag_78\n      swap2\n        /* \"src/CharityRaffle.sol\":356:6061  contract CharityRaffle is OwnableUpgradeable, VRFConsumerBaseV2PlusCustom {... */\n      dup5\n        /* \"lib/openzeppelin-contracts-upgradeable/contracts/proxy/utils/Initializable.sol\":4977:5044  if (isTopLevelCall) {... */\n      tag_79\n      jumpi\n        /* \"src/CharityRaffle.sol\":356:6061  contract CharityRaffle is OwnableUpgradeable, VRFConsumerBaseV2PlusCustom {... */\n    tag_80:\n        /* \"lib/openzeppelin-contracts-upgradeable/contracts/proxy/utils/Initializable.sol\":6891:6967  modifier onlyInitializing() {... */\n      pop\n      tag_81\n      tag_10\n      jump\t// in\n    tag_81:\n      tag_82\n      tag_10\n      jump\t// in\n    tag_82:\n        /* \"lib/openzeppelin-contracts-upgradeable/contracts/proxy/utils/Initializable.sol\":6959:6960  _ */\n      tag_7\n      jump\t// in\n    tag_78:\n        /* \"src/CharityRaffle.sol\":1777:1819  0x9DdfaCa8183c41ad55329BdeeD9F6A8d53168B1B */\n      0x9ddfaca8183c41ad55329bdeed9f6a8d53168b1b\n      sub(shl(0x60, 0x01), 0x01)\n        /* \"src/CharityRaffle.sol\":356:6061  contract CharityRaffle is OwnableUpgradeable, VRFConsumerBaseV2PlusCustom {... */\n      0xa0\n      shl\n      sload(0x00)\n      and\n      or\n      0x00\n      sstore\n        /* \"src/CharityRaffle.sol\":1900:1911  0.001 ether */\n      0x038d7ea4c68000\n        /* \"src/CharityRaffle.sol\":356:6061  contract CharityRaffle is OwnableUpgradeable, VRFConsumerBaseV2PlusCustom {... */\n      0x01\n      sstore\n        /* \"src/CharityRaffle.sol\":1966:1967  2 */\n      0x02\n        /* \"src/CharityRaffle.sol\":356:6061  contract CharityRaffle is OwnableUpgradeable, VRFConsumerBaseV2PlusCustom {... */\n      dup1\n      sstore\n        /* \"src/CharityRaffle.sol\":2033:2037  3000 */\n      0x0bb8\n        /* \"src/CharityRaffle.sol\":2012:2037  pricePersentageBPS = 3000 */\n      0x03\n        /* \"src/CharityRaffle.sol\":356:6061  contract CharityRaffle is OwnableUpgradeable, VRFConsumerBaseV2PlusCustom {... */\n      sstore\n      and(sload(0x04), shl(0xa0, sub(shl(0x60, 0x01), 0x01)))\n      or\n      0x04\n      sstore\n      calldataload(0x44)\n        /* \"src/CharityRaffle.sol\":2134:2170  vrfSubsciptionId = _vrfSubsciptionId */\n      0x05\n        /* \"src/CharityRaffle.sol\":356:6061  contract CharityRaffle is OwnableUpgradeable, VRFConsumerBaseV2PlusCustom {... */\n      sstore\n      calldataload(0x64)\n        /* \"src/CharityRaffle.sol\":2180:2204  vrfKeyHash = _vrfKeyHash */\n      0x06\n        /* \"src/CharityRaffle.sol\":356:6061  contract CharityRaffle is OwnableUpgradeable, VRFConsumerBaseV2PlusCustom {... */\n      sstore\n      calldataload(0x84)\n        /* \"src/CharityRaffle.sol\":2214:2238  merkleRoot = _merkleRoot */\n      0x08\n        /* \"src/CharityRaffle.sol\":356:6061  contract CharityRaffle is OwnableUpgradeable, VRFConsumerBaseV2PlusCustom {... */\n      sstore\n        /* \"lib/openzeppelin-contracts-upgradeable/contracts/proxy/utils/Initializable.sol\":5064:5165  if (isTopLevelCall) {... */\n      tag_83\n      jumpi\n        /* \"src/CharityRaffle.sol\":356:6061  contract CharityRaffle is OwnableUpgradeable, VRFConsumerBaseV2PlusCustom {... */\n      stop\n        /* \"lib/openzeppelin-contracts-upgradeable/contracts/proxy/utils/Initializable.sol\":5064:5165  if (isTopLevelCall) {... */\n    tag_83:\n        /* \"src/CharityRaffle.sol\":356:6061  contract CharityRaffle is OwnableUpgradeable, VRFConsumerBaseV2PlusCustom {... */\n      not(0xff0000000000000000)\n      mload(0x00)\n      codecopy(0x00, data_e28a5566b8a884201ab44e2d991177ce8b88325e02e52cbc3da6e67b3ecf29c6, 0x20)\n      mload(0x00)\n      swap1\n      0x00\n      mstore\n      sload\n      and\n      mload(0x00)\n      codecopy(0x00, data_e28a5566b8a884201ab44e2d991177ce8b88325e02e52cbc3da6e67b3ecf29c6, 0x20)\n      mload(0x00)\n      swap1\n      0x00\n      mstore\n      sstore\n        /* \"lib/openzeppelin-contracts-upgradeable/contracts/proxy/utils/Initializable.sol\":5140:5154  Initialized(1) */\n      0xc7f505b2f371ae2175ee4913f4499e1f2633a7b5936321eed1cdaeb6115181d2\n        /* \"src/CharityRaffle.sol\":356:6061  contract CharityRaffle is OwnableUpgradeable, VRFConsumerBaseV2PlusCustom {... */\n      0x20\n      mload(0x40)\n      0x01\n      dup2\n      mstore\n        /* \"lib/openzeppelin-contracts-upgradeable/contracts/proxy/utils/Initializable.sol\":5140:5154  Initialized(1) */\n      log1\n        /* \"src/CharityRaffle.sol\":356:6061  contract CharityRaffle is OwnableUpgradeable, VRFConsumerBaseV2PlusCustom {... */\n      stop\n        /* \"lib/openzeppelin-contracts-upgradeable/contracts/proxy/utils/Initializable.sol\":4977:5044  if (isTopLevelCall) {... */\n    tag_79:\n      not(0xffffffffffffffffff)\n        /* \"src/CharityRaffle.sol\":356:6061  contract CharityRaffle is OwnableUpgradeable, VRFConsumerBaseV2PlusCustom {... */\n      and\n      0x010000000000000001\n      or\n      mload(0x00)\n      codecopy(0x00, data_e28a5566b8a884201ab44e2d991177ce8b88325e02e52cbc3da6e67b3ecf29c6, 0x20)\n      mload(0x00)\n      swap1\n      0x00\n      mstore\n      sstore\n        /* \"lib/openzeppelin-contracts-upgradeable/contracts/proxy/utils/Initializable.sol\":4977:5044  if (isTopLevelCall) {... */\n      0x00\n      jump(tag_80)\n        /* \"lib/openzeppelin-contracts-upgradeable/contracts/proxy/utils/Initializable.sol\":4849:4940  if (!initialSetup && !construction) {... */\n    tag_76:\n        /* \"lib/openzeppelin-contracts-upgradeable/contracts/proxy/utils/Initializable.sol\":4906:4929  InvalidInitialization() */\n      shl(0xe0, 0xf92ee8a9)\n        /* \"src/CharityRaffle.sol\":356:6061  contract CharityRaffle is OwnableUpgradeable, VRFConsumerBaseV2PlusCustom {... */\n      0x00\n        /* \"lib/openzeppelin-contracts-upgradeable/contracts/proxy/utils/Initializable.sol\":4906:4929  InvalidInitialization() */\n      mstore\n        /* \"src/CharityRaffle.sol\":356:6061  contract CharityRaffle is OwnableUpgradeable, VRFConsumerBaseV2PlusCustom {... */\n      0x04\n      0x00\n        /* \"lib/openzeppelin-contracts-upgradeable/contracts/proxy/utils/Initializable.sol\":4906:4929  InvalidInitialization() */\n      revert\n        /* \"lib/openzeppelin-contracts-upgradeable/contracts/proxy/utils/Initializable.sol\":4853:4883  !initialSetup && !construction */\n    tag_74:\n        /* \"lib/openzeppelin-contracts-upgradeable/contracts/proxy/utils/Initializable.sol\":4870:4883  !construction */\n      swap1\n      pop\n      iszero\n        /* \"lib/openzeppelin-contracts-upgradeable/contracts/proxy/utils/Initializable.sol\":4853:4883  !initialSetup && !construction */\n      0x00\n      jump(tag_75)\n        /* \"lib/openzeppelin-contracts-upgradeable/contracts/proxy/utils/Initializable.sol\":4788:4838  initialized == 1 && address(this).code.length == 0 */\n    tag_72:\n        /* \"lib/openzeppelin-contracts-upgradeable/contracts/proxy/utils/Initializable.sol\":4816:4820  this */\n      address\n        /* \"lib/openzeppelin-contracts-upgradeable/contracts/proxy/utils/Initializable.sol\":4808:4833  address(this).code.length */\n      extcodesize\n        /* \"lib/openzeppelin-contracts-upgradeable/contracts/proxy/utils/Initializable.sol\":4808:4838  address(this).code.length == 0 */\n      iszero\n      swap2\n      pop\n        /* \"lib/openzeppelin-contracts-upgradeable/contracts/proxy/utils/Initializable.sol\":4788:4838  initialized == 1 && address(this).code.length == 0 */\n      jump(tag_73)\n        /* \"lib/openzeppelin-contracts-upgradeable/contracts/proxy/utils/Initializable.sol\":4724:4758  initialized == 0 && isTopLevelCall */\n    tag_70:\n      dup6\n      swap2\n      pop\n      jump(tag_71)\n        /* \"src/CharityRaffle.sol\":356:6061  contract CharityRaffle is OwnableUpgradeable, VRFConsumerBaseV2PlusCustom {... */\n    tag_68:\n      0x00\n      dup1\n      revert\n    tag_59:\n      jumpi(tag_68, callvalue)\n      jumpi(tag_68, slt(add(not(0x03), calldatasize), 0x20))\n        /* \"lib/openzeppelin-contracts-upgradeable/contracts/access/OwnableUpgradeable.sol\":2357:2358  _ */\n      tag_89\n        /* \"src/CharityRaffle.sol\":356:6061  contract CharityRaffle is OwnableUpgradeable, VRFConsumerBaseV2PlusCustom {... */\n      tag_90\n      tag_2\n      jump\t// in\n    tag_90:\n        /* \"lib/openzeppelin-contracts-upgradeable/contracts/access/OwnableUpgradeable.sol\":2303:2365  modifier onlyOwner() {... */\n      tag_82\n      tag_9\n      jump\t// in\n        /* \"lib/openzeppelin-contracts-upgradeable/contracts/access/OwnableUpgradeable.sol\":2357:2358  _ */\n    tag_89:\n        /* \"src/CharityRaffle.sol\":356:6061  contract CharityRaffle is OwnableUpgradeable, VRFConsumerBaseV2PlusCustom {... */\n      stop\n    tag_57:\n      jumpi(tag_68, callvalue)\n      jumpi(tag_68, slt(add(not(0x03), calldatasize), 0x00))\n      0x20\n        /* \"src/CharityRaffle.sol\":813:840  uint256 public charityFunds */\n      0x0a\n        /* \"src/CharityRaffle.sol\":356:6061  contract CharityRaffle is OwnableUpgradeable, VRFConsumerBaseV2PlusCustom {... */\n      sload\n      mload(0x40)\n      swap1\n      dup2\n      mstore\n      return\n    tag_55:\n      jumpi(tag_68, callvalue)\n      jumpi(tag_68, slt(add(not(0x03), calldatasize), 0x00))\n      0x20\n        /* \"src/CharityRaffle.sol\":541:568  uint256 public numOfWinners */\n      0x02\n        /* \"src/CharityRaffle.sol\":356:6061  contract CharityRaffle is OwnableUpgradeable, VRFConsumerBaseV2PlusCustom {... */\n      sload\n      mload(0x40)\n      swap1\n      dup2\n      mstore\n      return\n    tag_53:\n      jumpi(tag_68, callvalue)\n      jumpi(tag_68, slt(add(not(0x03), calldatasize), 0x00))\n      0x20\n        /* \"src/CharityRaffle.sol\":780:807  uint256 public winnerReward */\n      0x09\n        /* \"src/CharityRaffle.sol\":356:6061  contract CharityRaffle is OwnableUpgradeable, VRFConsumerBaseV2PlusCustom {... */\n      sload\n      mload(0x40)\n      swap1\n      dup2\n      mstore\n      return\n    tag_51:\n      jumpi(tag_68, callvalue)\n      jumpi(tag_68, slt(add(not(0x03), calldatasize), 0x00))\n      sload(0x00)\n      mload(0x40)\n      sub(shl(0xa0, 0x01), 0x01)\n      swap1\n      swap2\n      and\n      dup2\n      mstore\n      0x20\n      swap1\n      return\n    tag_49:\n      jumpi(tag_68, callvalue)\n      jumpi(tag_68, slt(add(not(0x03), calldatasize), 0x00))\n        /* \"lib/openzeppelin-contracts-upgradeable/contracts/access/OwnableUpgradeable.sol\":2303:2365  modifier onlyOwner() {... */\n      tag_112\n      tag_9\n      jump\t// in\n    tag_112:\n        /* \"src/CharityRaffle.sol\":2890:2902  vrfRequestId */\n      0x07\n        /* \"src/CharityRaffle.sol\":356:6061  contract CharityRaffle is OwnableUpgradeable, VRFConsumerBaseV2PlusCustom {... */\n      sload\n      tag_113\n      jumpi\n      0x01\n      dup1\n      0xa0\n      shl\n      sub\n      sload(0x00)\n      and\n        /* \"src/CharityRaffle.sol\":3069:3079  vrfKeyHash */\n      0x06\n        /* \"src/CharityRaffle.sol\":356:6061  contract CharityRaffle is OwnableUpgradeable, VRFConsumerBaseV2PlusCustom {... */\n      sload\n        /* \"src/CharityRaffle.sol\":3104:3120  vrfSubsciptionId */\n      0x05\n        /* \"src/CharityRaffle.sol\":356:6061  contract CharityRaffle is OwnableUpgradeable, VRFConsumerBaseV2PlusCustom {... */\n      sload\n      swap2\n      0xffffffff\n        /* \"src/CharityRaffle.sol\":3239:3251  numOfWinners */\n      0x02\n        /* \"src/CharityRaffle.sol\":356:6061  contract CharityRaffle is OwnableUpgradeable, VRFConsumerBaseV2PlusCustom {... */\n      sload\n      and\n      swap1\n      mload(0x40)\n      swap4\n      0x20\n      dup6\n      add\n      dup6\n      dup2\n      lt\n      0xffffffffffffffff\n      dup3\n      gt\n      or\n      tag_118\n      jumpi\n      0x40\n      mstore\n      0x00\n      dup6\n      mstore\n      mload(0x40)\n      swap5\n      shl(0xe3, 0x125fa267)\n      0x20\n        /* \"lib/chainlink-brownie-contracts/contracts/src/v0.8/vrf/dev/libraries/VRFV2PlusClient.sol\":581:633  abi.encodeWithSelector(EXTRA_ARGS_V1_TAG, extraArgs) */\n      dup8\n      add\n      mstore\n        /* \"lib/chainlink-brownie-contracts/contracts/src/v0.8/vrf/dev/libraries/VRFV2PlusClient.sol\":204:240  bytes4(keccak256(\"VRF ExtraArgsV1\")) */\n      mload\n        /* \"src/CharityRaffle.sol\":356:6061  contract CharityRaffle is OwnableUpgradeable, VRFConsumerBaseV2PlusCustom {... */\n      iszero\n      iszero\n        /* \"lib/chainlink-brownie-contracts/contracts/src/v0.8/vrf/dev/libraries/VRFV2PlusClient.sol\":581:633  abi.encodeWithSelector(EXTRA_ARGS_V1_TAG, extraArgs) */\n      0x24\n      dup7\n      add\n        /* \"src/CharityRaffle.sol\":356:6061  contract CharityRaffle is OwnableUpgradeable, VRFConsumerBaseV2PlusCustom {... */\n      mstore\n        /* \"lib/chainlink-brownie-contracts/contracts/src/v0.8/vrf/dev/libraries/VRFV2PlusClient.sol\":581:633  abi.encodeWithSelector(EXTRA_ARGS_V1_TAG, extraArgs) */\n      0x24\n      dup6\n      mstore\n      tag_117\n      0x44\n      dup7\n      tag_3\n      jump\t// in\n    tag_117:\n        /* \"src/CharityRaffle.sol\":356:6061  contract CharityRaffle is OwnableUpgradeable, VRFConsumerBaseV2PlusCustom {... */\n      mload(0x40)\n      swap5\n      0xc0\n      dup7\n      add\n      swap5\n      dup7\n      dup7\n      lt\n      0xffffffffffffffff\n      dup8\n      gt\n      or\n      tag_118\n      jumpi\n      0xffff\n      swap7\n      0x20\n      0x00\n      swap4\n      0x0104\n      swap4\n      dup3\n      swap10\n      0x40\n      mstore\n      dup4\n      mstore\n        /* \"src/CharityRaffle.sol\":3007:3521  VRFV2PlusClient.RandomWordsRequest({... */\n      dup2\n      dup4\n      add\n        /* \"src/CharityRaffle.sol\":356:6061  contract CharityRaffle is OwnableUpgradeable, VRFConsumerBaseV2PlusCustom {... */\n      swap6\n      dup7\n      mstore\n      0xffffffff\n      0x40\n        /* \"src/CharityRaffle.sol\":3007:3521  VRFV2PlusClient.RandomWordsRequest({... */\n      dup5\n      add\n        /* \"src/CharityRaffle.sol\":356:6061  contract CharityRaffle is OwnableUpgradeable, VRFConsumerBaseV2PlusCustom {... */\n      swap9\n        /* \"src/CharityRaffle.sol\":3160:3161  3 */\n      0x03\n        /* \"src/CharityRaffle.sol\":356:6061  contract CharityRaffle is OwnableUpgradeable, VRFConsumerBaseV2PlusCustom {... */\n      dup11\n      mstore\n        /* \"src/CharityRaffle.sol\":3007:3521  VRFV2PlusClient.RandomWordsRequest({... */\n      dup2\n      0x60\n      dup7\n      add\n        /* \"src/CharityRaffle.sol\":3197:3204  1000000 */\n      0x0f4240\n        /* \"src/CharityRaffle.sol\":356:6061  contract CharityRaffle is OwnableUpgradeable, VRFConsumerBaseV2PlusCustom {... */\n      dup2\n      mstore\n        /* \"src/CharityRaffle.sol\":3007:3521  VRFV2PlusClient.RandomWordsRequest({... */\n      0x80\n      dup8\n      add\n        /* \"src/CharityRaffle.sol\":356:6061  contract CharityRaffle is OwnableUpgradeable, VRFConsumerBaseV2PlusCustom {... */\n      swap3\n      dup4\n      mstore\n        /* \"src/CharityRaffle.sol\":3007:3521  VRFV2PlusClient.RandomWordsRequest({... */\n      0xa0\n      dup8\n      add\n        /* \"src/CharityRaffle.sol\":356:6061  contract CharityRaffle is OwnableUpgradeable, VRFConsumerBaseV2PlusCustom {... */\n      swap5\n      dup6\n      mstore\n      mload(0x40)\n      swap14\n      dup15\n      swap13\n      dup14\n      swap12\n      dup13\n      swap10\n      shl(0xe1, 0x4d8e1c2f)\n        /* \"src/CharityRaffle.sol\":2958:3531  s_vrfCoordinator.requestRandomWords(... */\n      dup12\n      mstore\n      dup10\n        /* \"src/CharityRaffle.sol\":356:6061  contract CharityRaffle is OwnableUpgradeable, VRFConsumerBaseV2PlusCustom {... */\n      0x04\n        /* \"src/CharityRaffle.sol\":2958:3531  s_vrfCoordinator.requestRandomWords(... */\n      dup13\n      add\n        /* \"src/CharityRaffle.sol\":356:6061  contract CharityRaffle is OwnableUpgradeable, VRFConsumerBaseV2PlusCustom {... */\n      mstore\n      mload\n        /* \"lib/chainlink-brownie-contracts/contracts/src/v0.8/vrf/dev/libraries/VRFV2PlusClient.sol\":581:633  abi.encodeWithSelector(EXTRA_ARGS_V1_TAG, extraArgs) */\n      0x24\n        /* \"src/CharityRaffle.sol\":356:6061  contract CharityRaffle is OwnableUpgradeable, VRFConsumerBaseV2PlusCustom {... */\n      dup12\n      add\n      mstore\n      mload\n        /* \"lib/chainlink-brownie-contracts/contracts/src/v0.8/vrf/dev/libraries/VRFV2PlusClient.sol\":581:633  abi.encodeWithSelector(EXTRA_ARGS_V1_TAG, extraArgs) */\n      0x44\n        /* \"src/CharityRaffle.sol\":356:6061  contract CharityRaffle is OwnableUpgradeable, VRFConsumerBaseV2PlusCustom {... */\n      dup11\n      add\n      mstore\n      mload\n      and\n      0x64\n      dup9\n      add\n      mstore\n      mload\n      and\n      0x84\n      dup7\n      add\n      mstore\n      mload\n      and\n      0xa4\n      dup5\n      add\n      mstore\n      mload\n      0xc0\n      0xc4\n      dup5\n      add\n      mstore\n      dup1\n      mload\n      swap2\n      dup3\n      swap2\n      dup3\n      0xe4\n      dup7\n      add\n      mstore\n      add\n      dup5\n      dup5\n      add\n      mcopy\n      dup2\n      dup2\n      add\n      dup4\n      add\n      dup5\n      swap1\n      mstore\n      0x1f\n      add\n      not(0x1f)\n      and\n      dup2\n      add\n        /* \"src/CharityRaffle.sol\":2958:3531  s_vrfCoordinator.requestRandomWords(... */\n      sub\n      add\n      swap3\n      gas\n      call\n      swap1\n      dup2\n      iszero\n      tag_120\n      jumpi\n        /* \"src/CharityRaffle.sol\":356:6061  contract CharityRaffle is OwnableUpgradeable, VRFConsumerBaseV2PlusCustom {... */\n      0x00\n        /* \"src/CharityRaffle.sol\":2958:3531  s_vrfCoordinator.requestRandomWords(... */\n      swap2\n      tag_122\n      jumpi\n        /* \"src/CharityRaffle.sol\":356:6061  contract CharityRaffle is OwnableUpgradeable, VRFConsumerBaseV2PlusCustom {... */\n    tag_123:\n      pop\n      dup1\n        /* \"src/CharityRaffle.sol\":2890:2902  vrfRequestId */\n      0x07\n        /* \"src/CharityRaffle.sol\":356:6061  contract CharityRaffle is OwnableUpgradeable, VRFConsumerBaseV2PlusCustom {... */\n      sstore\n        /* \"src/CharityRaffle.sol\":3567:3600  participants.length * ticketPrice */\n      tag_124\n        /* \"src/CharityRaffle.sol\":3567:3579  participants */\n      0x0b\n        /* \"src/CharityRaffle.sol\":356:6061  contract CharityRaffle is OwnableUpgradeable, VRFConsumerBaseV2PlusCustom {... */\n      sload\n      sload(0x01)\n        /* \"src/CharityRaffle.sol\":3567:3600  participants.length * ticketPrice */\n      swap1\n      tag_6\n      jump\t// in\n    tag_124:\n        /* \"src/CharityRaffle.sol\":3719:3746  winnerReward * numOfWinners */\n      tag_125\n        /* \"src/CharityRaffle.sol\":474:479  10000 */\n      0x2710\n        /* \"src/CharityRaffle.sol\":3626:3661  fundsCollected * pricePersentageBPS */\n      tag_126\n        /* \"src/CharityRaffle.sol\":3160:3161  3 */\n      0x03\n        /* \"src/CharityRaffle.sol\":356:6061  contract CharityRaffle is OwnableUpgradeable, VRFConsumerBaseV2PlusCustom {... */\n      sload\n        /* \"src/CharityRaffle.sol\":3626:3661  fundsCollected * pricePersentageBPS */\n      dup5\n      tag_6\n      jump\t// in\n    tag_126:\n        /* \"src/CharityRaffle.sol\":356:6061  contract CharityRaffle is OwnableUpgradeable, VRFConsumerBaseV2PlusCustom {... */\n      div\n      dup1\n        /* \"src/CharityRaffle.sol\":3610:3676  winnerReward = (fundsCollected * pricePersentageBPS) / DENOMINATOR */\n      0x09\n        /* \"src/CharityRaffle.sol\":356:6061  contract CharityRaffle is OwnableUpgradeable, VRFConsumerBaseV2PlusCustom {... */\n      sstore\n        /* \"src/CharityRaffle.sol\":3239:3251  numOfWinners */\n      0x02\n        /* \"src/CharityRaffle.sol\":356:6061  contract CharityRaffle is OwnableUpgradeable, VRFConsumerBaseV2PlusCustom {... */\n      sload\n        /* \"src/CharityRaffle.sol\":3719:3746  winnerReward * numOfWinners */\n      swap1\n      tag_6\n      jump\t// in\n    tag_125:\n        /* \"src/CharityRaffle.sol\":356:6061  contract CharityRaffle is OwnableUpgradeable, VRFConsumerBaseV2PlusCustom {... */\n      dup2\n      sub\n      swap1\n      dup2\n      gt\n      tag_127\n      jumpi\n        /* \"src/CharityRaffle.sol\":3763:3796  RandomnessRequested(vrfRequestId) */\n      0x9ac10fb18c93d33ad7b0a941897aef048d0f8d30756684e82b4552ba12764d45\n        /* \"src/CharityRaffle.sol\":356:6061  contract CharityRaffle is OwnableUpgradeable, VRFConsumerBaseV2PlusCustom {... */\n      swap2\n      0x20\n      swap2\n        /* \"src/CharityRaffle.sol\":3686:3747  charityFunds = fundsCollected - (winnerReward * numOfWinners) */\n      0x0a\n        /* \"src/CharityRaffle.sol\":356:6061  contract CharityRaffle is OwnableUpgradeable, VRFConsumerBaseV2PlusCustom {... */\n      sstore\n      mload(0x40)\n      swap1\n      dup2\n      mstore\n        /* \"src/CharityRaffle.sol\":3763:3796  RandomnessRequested(vrfRequestId) */\n      log1\n        /* \"src/CharityRaffle.sol\":356:6061  contract CharityRaffle is OwnableUpgradeable, VRFConsumerBaseV2PlusCustom {... */\n      stop\n    tag_127:\n      mstore(0x00, shl(0xe0, 0x4e487b71))\n      mstore(0x04, 0x11)\n        /* \"lib/chainlink-brownie-contracts/contracts/src/v0.8/vrf/dev/libraries/VRFV2PlusClient.sol\":581:633  abi.encodeWithSelector(EXTRA_ARGS_V1_TAG, extraArgs) */\n      0x24\n        /* \"src/CharityRaffle.sol\":356:6061  contract CharityRaffle is OwnableUpgradeable, VRFConsumerBaseV2PlusCustom {... */\n      0x00\n      revert\n        /* \"src/CharityRaffle.sol\":2958:3531  s_vrfCoordinator.requestRandomWords(... */\n    tag_122:\n      swap1\n      pop\n        /* \"src/CharityRaffle.sol\":356:6061  contract CharityRaffle is OwnableUpgradeable, VRFConsumerBaseV2PlusCustom {... */\n      0x20\n        /* \"src/CharityRaffle.sol\":2958:3531  s_vrfCoordinator.requestRandomWords(... */\n      dup2\n      returndatasize\n        /* \"src/CharityRaffle.sol\":356:6061  contract CharityRaffle is OwnableUpgradeable, VRFConsumerBaseV2PlusCustom {... */\n      0x20\n        /* \"src/CharityRaffle.sol\":2958:3531  s_vrfCoordinator.requestRandomWords(... */\n      gt\n      tag_129\n      jumpi\n    tag_130:\n      dup2\n      tag_131\n        /* \"src/CharityRaffle.sol\":356:6061  contract CharityRaffle is OwnableUpgradeable, VRFConsumerBaseV2PlusCustom {... */\n      0x20\n        /* \"src/CharityRaffle.sol\":2958:3531  s_vrfCoordinator.requestRandomWords(... */\n      swap4\n      dup4\n      tag_3\n      jump\t// in\n    tag_131:\n      dup2\n      add\n        /* \"src/CharityRaffle.sol\":356:6061  contract CharityRaffle is OwnableUpgradeable, VRFConsumerBaseV2PlusCustom {... */\n      sub\n      slt\n      tag_68\n      jumpi\n      mload\n        /* \"src/CharityRaffle.sol\":2958:3531  s_vrfCoordinator.requestRandomWords(... */\n      dup2\n      jump(tag_123)\n    tag_129:\n      returndatasize\n      swap2\n      pop\n      jump(tag_130)\n    tag_120:\n        /* \"src/CharityRaffle.sol\":356:6061  contract CharityRaffle is OwnableUpgradeable, VRFConsumerBaseV2PlusCustom {... */\n      mload(0x40)\n      returndatasize\n      0x00\n      dup3\n      returndatacopy\n      returndatasize\n      swap1\n      revert\n    tag_118:\n      mstore(0x00, shl(0xe0, 0x4e487b71))\n      mstore(0x04, 0x41)\n        /* \"lib/chainlink-brownie-contracts/contracts/src/v0.8/vrf/dev/libraries/VRFV2PlusClient.sol\":581:633  abi.encodeWithSelector(EXTRA_ARGS_V1_TAG, extraArgs) */\n      0x24\n        /* \"src/CharityRaffle.sol\":356:6061  contract CharityRaffle is OwnableUpgradeable, VRFConsumerBaseV2PlusCustom {... */\n      0x00\n      revert\n    tag_113:\n      mstore(0x00, shl(0xe0, 0x0d5bae95))\n      revert(0x00, 0x04)\n    tag_47:\n      jumpi(tag_68, callvalue)\n      jumpi(tag_68, slt(add(not(0x03), calldatasize), 0x00))\n      0x20\n        /* \"src/CharityRaffle.sol\":574:607  uint256 public pricePersentageBPS */\n      0x03\n        /* \"src/CharityRaffle.sol\":356:6061  contract CharityRaffle is OwnableUpgradeable, VRFConsumerBaseV2PlusCustom {... */\n      sload\n      mload(0x40)\n      swap1\n      dup2\n      mstore\n      return\n    tag_45:\n      jumpi(tag_68, callvalue)\n      jumpi(tag_68, slt(add(not(0x03), calldatasize), 0x00))\n      0x20\n      mload(0x40)\n        /* \"src/CharityRaffle.sol\":474:479  10000 */\n      0x2710\n        /* \"src/CharityRaffle.sol\":356:6061  contract CharityRaffle is OwnableUpgradeable, VRFConsumerBaseV2PlusCustom {... */\n      dup2\n      mstore\n      return\n    tag_43:\n      jumpi(tag_68, callvalue)\n      jumpi(tag_68, slt(add(not(0x03), calldatasize), 0x20))\n      tag_146\n      tag_2\n      jump\t// in\n    tag_146:\n      mload(0x00)\n      codecopy(0x00, data_47f5c767712c0cb55e0943de27dbb2db3b8bdac1e899af22d477462089a99558, 0x20)\n      mload(0x00)\n      swap1\n      0x00\n      mstore\n      sload\n      sub(shl(0xa0, 0x01), 0x01)\n      and\n        /* \"src/VRFConsumerBaseV2PlusCustom.sol\":8104:8114  msg.sender */\n      caller\n        /* \"src/VRFConsumerBaseV2PlusCustom.sol\":8104:8125  msg.sender != owner() */\n      dup2\n      eq\n      iszero\n      dup1\n        /* \"src/VRFConsumerBaseV2PlusCustom.sol\":8104:8168  msg.sender != owner() && msg.sender != address(s_vrfCoordinator) */\n      tag_147\n      jumpi\n        /* \"src/CharityRaffle.sol\":356:6061  contract CharityRaffle is OwnableUpgradeable, VRFConsumerBaseV2PlusCustom {... */\n    tag_148:\n        /* \"src/VRFConsumerBaseV2PlusCustom.sol\":8100:8334  if (msg.sender != owner() && msg.sender != address(s_vrfCoordinator)) {... */\n      tag_149\n      jumpi\n      pop\n      sub(shl(0xa0, 0x01), 0x01)\n        /* \"src/CharityRaffle.sol\":356:6061  contract CharityRaffle is OwnableUpgradeable, VRFConsumerBaseV2PlusCustom {... */\n      and\n        /* \"src/VRFConsumerBaseV2PlusCustom.sol\":7854:7883  _vrfCoordinator == address(0) */\n      dup1\n      iszero\n        /* \"src/VRFConsumerBaseV2PlusCustom.sol\":7850:7930  if (_vrfCoordinator == address(0)) {... */\n      tag_151\n      jumpi\n        /* \"src/CharityRaffle.sol\":356:6061  contract CharityRaffle is OwnableUpgradeable, VRFConsumerBaseV2PlusCustom {... */\n      0x20\n      dup2\n        /* \"src/VRFConsumerBaseV2PlusCustom.sol\":8012:8043  CoordinatorSet(_vrfCoordinator) */\n      0xd1a6a14209a385a964d036e404cb5cfb71f4000cdb03c9366292430787261be6\n        /* \"src/CharityRaffle.sol\":356:6061  contract CharityRaffle is OwnableUpgradeable, VRFConsumerBaseV2PlusCustom {... */\n      swap3\n      and(sload(0x00), shl(0xa0, sub(shl(0x60, 0x01), 0x01)))\n      or\n      0x00\n      sstore\n      mload(0x40)\n      swap1\n      dup2\n      mstore\n        /* \"src/VRFConsumerBaseV2PlusCustom.sol\":8012:8043  CoordinatorSet(_vrfCoordinator) */\n      log1\n        /* \"src/CharityRaffle.sol\":356:6061  contract CharityRaffle is OwnableUpgradeable, VRFConsumerBaseV2PlusCustom {... */\n      stop\n        /* \"src/VRFConsumerBaseV2PlusCustom.sol\":7850:7930  if (_vrfCoordinator == address(0)) {... */\n    tag_151:\n        /* \"src/VRFConsumerBaseV2PlusCustom.sol\":7906:7919  ZeroAddress() */\n      shl(0xe0, 0xd92e233d)\n        /* \"src/CharityRaffle.sol\":356:6061  contract CharityRaffle is OwnableUpgradeable, VRFConsumerBaseV2PlusCustom {... */\n      0x00\n        /* \"src/VRFConsumerBaseV2PlusCustom.sol\":7906:7919  ZeroAddress() */\n      mstore\n        /* \"src/CharityRaffle.sol\":356:6061  contract CharityRaffle is OwnableUpgradeable, VRFConsumerBaseV2PlusCustom {... */\n      0x04\n      0x00\n        /* \"src/VRFConsumerBaseV2PlusCustom.sol\":7906:7919  ZeroAddress() */\n      revert\n        /* \"src/VRFConsumerBaseV2PlusCustom.sol\":8100:8334  if (msg.sender != owner() && msg.sender != address(s_vrfCoordinator)) {... */\n    tag_149:\n        /* \"src/CharityRaffle.sol\":356:6061  contract CharityRaffle is OwnableUpgradeable, VRFConsumerBaseV2PlusCustom {... */\n      0x01\n      dup1\n      0xa0\n      shl\n      sub\n      sload(0x00)\n      and\n        /* \"src/VRFConsumerBaseV2PlusCustom.sol\":8191:8323  OnlyOwnerOrCoordinator(... */\n      swap1\n      shl(0xe0, 0x061db9c1)\n        /* \"src/CharityRaffle.sol\":356:6061  contract CharityRaffle is OwnableUpgradeable, VRFConsumerBaseV2PlusCustom {... */\n      0x00\n        /* \"src/VRFConsumerBaseV2PlusCustom.sol\":8191:8323  OnlyOwnerOrCoordinator(... */\n      mstore\n        /* \"src/VRFConsumerBaseV2PlusCustom.sol\":8104:8114  msg.sender */\n      caller\n        /* \"src/CharityRaffle.sol\":356:6061  contract CharityRaffle is OwnableUpgradeable, VRFConsumerBaseV2PlusCustom {... */\n      0x04\n      mstore\n      0x24\n      mstore\n      0x44\n      mstore\n      0x64\n      0x00\n        /* \"src/VRFConsumerBaseV2PlusCustom.sol\":8191:8323  OnlyOwnerOrCoordinator(... */\n      revert\n        /* \"src/VRFConsumerBaseV2PlusCustom.sol\":8104:8168  msg.sender != owner() && msg.sender != address(s_vrfCoordinator) */\n    tag_147:\n      pop\n        /* \"src/CharityRaffle.sol\":356:6061  contract CharityRaffle is OwnableUpgradeable, VRFConsumerBaseV2PlusCustom {... */\n      and(sub(shl(0xa0, 0x01), 0x01), sload(0x00))\n        /* \"src/VRFConsumerBaseV2PlusCustom.sol\":8104:8114  msg.sender */\n      caller\n        /* \"src/VRFConsumerBaseV2PlusCustom.sol\":8129:8168  msg.sender != address(s_vrfCoordinator) */\n      eq\n      iszero\n        /* \"src/VRFConsumerBaseV2PlusCustom.sol\":8104:8168  msg.sender != owner() && msg.sender != address(s_vrfCoordinator) */\n      jump(tag_148)\n        /* \"src/CharityRaffle.sol\":356:6061  contract CharityRaffle is OwnableUpgradeable, VRFConsumerBaseV2PlusCustom {... */\n    tag_41:\n      jumpi(tag_68, callvalue)\n      jumpi(tag_68, slt(add(not(0x03), calldatasize), 0x00))\n      mload(0x00)\n      codecopy(0x00, data_47f5c767712c0cb55e0943de27dbb2db3b8bdac1e899af22d477462089a99558, 0x20)\n      mload(0x00)\n      swap1\n      0x00\n      mstore\n      sload\n      mload(0x40)\n      sub(shl(0xa0, 0x01), 0x01)\n      swap1\n      swap2\n      and\n      dup2\n      mstore\n      0x20\n      swap1\n      return\n    tag_39:\n      jumpi(tag_68, callvalue)\n      jumpi(tag_68, slt(add(not(0x03), calldatasize), 0x00))\n      0x20\n      0xff\n        /* \"src/CharityRaffle.sol\":927:954  bool public winnersSelected */\n      0x0d\n        /* \"src/CharityRaffle.sol\":356:6061  contract CharityRaffle is OwnableUpgradeable, VRFConsumerBaseV2PlusCustom {... */\n      sload\n      and\n      mload(0x40)\n      swap1\n      iszero\n      iszero\n      dup2\n      mstore\n      return\n    tag_37:\n      jumpi(tag_68, callvalue)\n      jumpi(tag_68, slt(add(not(0x03), calldatasize), 0x00))\n      0x20\n        /* \"src/CharityRaffle.sol\":647:678  uint256 public vrfSubsciptionId */\n      0x05\n        /* \"src/CharityRaffle.sol\":356:6061  contract CharityRaffle is OwnableUpgradeable, VRFConsumerBaseV2PlusCustom {... */\n      sload\n      mload(0x40)\n      swap1\n      dup2\n      mstore\n      return\n    tag_35:\n      jumpi(tag_68, slt(add(not(0x03), calldatasize), 0x40))\n      calldataload(0x24)\n      calldataload(0x04)\n      0xffffffffffffffff\n      dup3\n      gt\n      tag_68\n      jumpi\n      calldatasize\n      0x23\n      dup4\n      add\n      slt\n      iszero\n      tag_68\n      jumpi\n      dup2\n      0x04\n      add\n      calldataload\n      swap2\n      tag_171\n      dup4\n      tag_4\n      jump\t// in\n    tag_171:\n      swap3\n      tag_172\n      mload(0x40)\n      swap5\n      dup6\n      tag_3\n      jump\t// in\n    tag_172:\n      dup1\n      dup5\n      mstore\n      0x24\n      0x20\n      dup6\n      add\n      swap2\n      0x05\n      shl\n      dup4\n      add\n      add\n      swap2\n      calldatasize\n      dup4\n      gt\n      tag_68\n      jumpi\n      0x24\n      add\n      swap1\n    tag_175:\n      dup3\n      dup3\n      lt\n      tag_176\n      jumpi\n      pop\n      pop\n      pop\n        /* \"src/CharityRaffle.sol\":2357:2375  ticketPrice * _qty */\n      tag_178\n        /* \"src/CharityRaffle.sol\":356:6061  contract CharityRaffle is OwnableUpgradeable, VRFConsumerBaseV2PlusCustom {... */\n      dup2\n      sload(0x01)\n        /* \"src/CharityRaffle.sol\":2357:2375  ticketPrice * _qty */\n      tag_6\n      jump\t// in\n    tag_178:\n        /* \"src/CharityRaffle.sol\":2344:2353  msg.value */\n      callvalue\n        /* \"src/CharityRaffle.sol\":2344:2375  msg.value == ticketPrice * _qty */\n      sub\n        /* \"src/CharityRaffle.sol\":356:6061  contract CharityRaffle is OwnableUpgradeable, VRFConsumerBaseV2PlusCustom {... */\n      tag_179\n      jumpi\n      mload(0x40)\n      0x20\n        /* \"src/CharityRaffle.sol\":2433:2455  abi.encode(msg.sender) */\n      dup2\n      add\n        /* \"src/CharityRaffle.sol\":2444:2454  msg.sender */\n      swap1\n      caller\n        /* \"src/CharityRaffle.sol\":356:6061  contract CharityRaffle is OwnableUpgradeable, VRFConsumerBaseV2PlusCustom {... */\n      dup3\n      mstore\n      0x20\n        /* \"src/CharityRaffle.sol\":2433:2455  abi.encode(msg.sender) */\n      dup2\n      mstore\n      tag_181\n        /* \"src/CharityRaffle.sol\":356:6061  contract CharityRaffle is OwnableUpgradeable, VRFConsumerBaseV2PlusCustom {... */\n      0x40\n        /* \"src/CharityRaffle.sol\":2433:2455  abi.encode(msg.sender) */\n      dup3\n      tag_3\n      jump\t// in\n    tag_181:\n        /* \"src/CharityRaffle.sol\":356:6061  contract CharityRaffle is OwnableUpgradeable, VRFConsumerBaseV2PlusCustom {... */\n      mload\n        /* \"src/CharityRaffle.sol\":2423:2456  keccak256(abi.encode(msg.sender)) */\n      swap1\n      keccak256\n        /* \"src/CharityRaffle.sol\":356:6061  contract CharityRaffle is OwnableUpgradeable, VRFConsumerBaseV2PlusCustom {... */\n      swap1\n        /* \"src/CharityRaffle.sol\":2547:2557  merkleRoot */\n      0x08\n        /* \"src/CharityRaffle.sol\":356:6061  contract CharityRaffle is OwnableUpgradeable, VRFConsumerBaseV2PlusCustom {... */\n      sload\n      swap2\n      mload(0x40)\n      0x20\n        /* \"src/CharityRaffle.sol\":2585:2607  abi.encodePacked(leaf) */\n      dup2\n      add\n        /* \"src/CharityRaffle.sol\":356:6061  contract CharityRaffle is OwnableUpgradeable, VRFConsumerBaseV2PlusCustom {... */\n      swap2\n      dup3\n      mstore\n      0x20\n        /* \"src/CharityRaffle.sol\":2585:2607  abi.encodePacked(leaf) */\n      dup2\n      mstore\n      tag_182\n        /* \"src/CharityRaffle.sol\":356:6061  contract CharityRaffle is OwnableUpgradeable, VRFConsumerBaseV2PlusCustom {... */\n      0x40\n        /* \"src/CharityRaffle.sol\":2585:2607  abi.encodePacked(leaf) */\n      dup3\n      tag_3\n      jump\t// in\n    tag_182:\n        /* \"src/CharityRaffle.sol\":356:6061  contract CharityRaffle is OwnableUpgradeable, VRFConsumerBaseV2PlusCustom {... */\n      mload\n        /* \"src/CharityRaffle.sol\":2575:2608  keccak256(abi.encodePacked(leaf)) */\n      swap1\n      keccak256\n        /* \"lib/openzeppelin-contracts-upgradeable/lib/openzeppelin-contracts/contracts/utils/cryptography/MerkleProof.sol\":2601:2614  uint256 i = 0 */\n      swap1\n        /* \"src/CharityRaffle.sol\":356:6061  contract CharityRaffle is OwnableUpgradeable, VRFConsumerBaseV2PlusCustom {... */\n      0x00\n        /* \"lib/openzeppelin-contracts-upgradeable/lib/openzeppelin-contracts/contracts/utils/cryptography/MerkleProof.sol\":2596:2730  for (uint256 i = 0; i < proof.length; i++) {... */\n      swap2\n        /* \"lib/openzeppelin-contracts-upgradeable/lib/openzeppelin-contracts/contracts/utils/cryptography/MerkleProof.sol\":2634:2637  i++ */\n    tag_183:\n        /* \"src/CharityRaffle.sol\":356:6061  contract CharityRaffle is OwnableUpgradeable, VRFConsumerBaseV2PlusCustom {... */\n      dup5\n      mload\n        /* \"lib/openzeppelin-contracts-upgradeable/lib/openzeppelin-contracts/contracts/utils/cryptography/MerkleProof.sol\":2616:2632  i < proof.length */\n      dup4\n      lt\n      iszero\n      tag_184\n      jumpi\n        /* \"lib/openzeppelin-contracts-upgradeable/lib/openzeppelin-contracts/contracts/utils/cryptography/MerkleProof.sol\":2710:2718  proof[i] */\n      tag_186\n      dup4\n      dup7\n      tag_8\n      jump\t// in\n    tag_186:\n        /* \"src/CharityRaffle.sol\":356:6061  contract CharityRaffle is OwnableUpgradeable, VRFConsumerBaseV2PlusCustom {... */\n      mload\n      swap1\n        /* \"lib/openzeppelin-contracts-upgradeable/lib/openzeppelin-contracts/contracts/utils/cryptography/Hashes.sol\":605:610  a < b */\n      dup2\n      dup2\n      lt\n      iszero\n      tag_187\n      jumpi\n        /* \"src/CharityRaffle.sol\":356:6061  contract CharityRaffle is OwnableUpgradeable, VRFConsumerBaseV2PlusCustom {... */\n      0x00\n        /* \"lib/openzeppelin-contracts-upgradeable/lib/openzeppelin-contracts/contracts/utils/cryptography/Hashes.sol\":889:1024  assembly (\"memory-safe\") {... */\n      mstore\n        /* \"src/CharityRaffle.sol\":356:6061  contract CharityRaffle is OwnableUpgradeable, VRFConsumerBaseV2PlusCustom {... */\n      0x20\n        /* \"lib/openzeppelin-contracts-upgradeable/lib/openzeppelin-contracts/contracts/utils/cryptography/Hashes.sol\":889:1024  assembly (\"memory-safe\") {... */\n      mstore\n        /* \"src/CharityRaffle.sol\":356:6061  contract CharityRaffle is OwnableUpgradeable, VRFConsumerBaseV2PlusCustom {... */\n      0x01\n      0x40\n      0x00\n        /* \"lib/openzeppelin-contracts-upgradeable/lib/openzeppelin-contracts/contracts/utils/cryptography/Hashes.sol\":889:1024  assembly (\"memory-safe\") {... */\n      keccak256\n        /* \"lib/openzeppelin-contracts-upgradeable/lib/openzeppelin-contracts/contracts/utils/cryptography/Hashes.sol\":605:664  a < b ? efficientKeccak256(a, b) : efficientKeccak256(b, a) */\n    tag_189:\n        /* \"lib/openzeppelin-contracts-upgradeable/lib/openzeppelin-contracts/contracts/utils/cryptography/MerkleProof.sol\":2634:2637  i++ */\n      swap3\n        /* \"src/CharityRaffle.sol\":356:6061  contract CharityRaffle is OwnableUpgradeable, VRFConsumerBaseV2PlusCustom {... */\n      add\n        /* \"lib/openzeppelin-contracts-upgradeable/lib/openzeppelin-contracts/contracts/utils/cryptography/MerkleProof.sol\":2601:2614  uint256 i = 0 */\n      swap2\n      jump(tag_183)\n        /* \"lib/openzeppelin-contracts-upgradeable/lib/openzeppelin-contracts/contracts/utils/cryptography/Hashes.sol\":605:664  a < b ? efficientKeccak256(a, b) : efficientKeccak256(b, a) */\n    tag_187:\n        /* \"lib/openzeppelin-contracts-upgradeable/lib/openzeppelin-contracts/contracts/utils/cryptography/Hashes.sol\":889:1024  assembly (\"memory-safe\") {... */\n      swap1\n        /* \"src/CharityRaffle.sol\":356:6061  contract CharityRaffle is OwnableUpgradeable, VRFConsumerBaseV2PlusCustom {... */\n      0x00\n        /* \"lib/openzeppelin-contracts-upgradeable/lib/openzeppelin-contracts/contracts/utils/cryptography/Hashes.sol\":889:1024  assembly (\"memory-safe\") {... */\n      mstore\n        /* \"src/CharityRaffle.sol\":356:6061  contract CharityRaffle is OwnableUpgradeable, VRFConsumerBaseV2PlusCustom {... */\n      0x20\n        /* \"lib/openzeppelin-contracts-upgradeable/lib/openzeppelin-contracts/contracts/utils/cryptography/Hashes.sol\":889:1024  assembly (\"memory-safe\") {... */\n      mstore\n        /* \"src/CharityRaffle.sol\":356:6061  contract CharityRaffle is OwnableUpgradeable, VRFConsumerBaseV2PlusCustom {... */\n      0x01\n      0x40\n      0x00\n        /* \"lib/openzeppelin-contracts-upgradeable/lib/openzeppelin-contracts/contracts/utils/cryptography/Hashes.sol\":889:1024  assembly (\"memory-safe\") {... */\n      keccak256\n        /* \"lib/openzeppelin-contracts-upgradeable/lib/openzeppelin-contracts/contracts/utils/cryptography/Hashes.sol\":605:664  a < b ? efficientKeccak256(a, b) : efficientKeccak256(b, a) */\n      jump(tag_189)\n        /* \"lib/openzeppelin-contracts-upgradeable/lib/openzeppelin-contracts/contracts/utils/cryptography/MerkleProof.sol\":2616:2632  i < proof.length */\n    tag_184:\n      dup4\n        /* \"lib/openzeppelin-contracts-upgradeable/lib/openzeppelin-contracts/contracts/utils/cryptography/MerkleProof.sol\":2016:2049  processProof(proof, leaf) == root */\n      sub\n        /* \"src/CharityRaffle.sol\":356:6061  contract CharityRaffle is OwnableUpgradeable, VRFConsumerBaseV2PlusCustom {... */\n      tag_190\n      jumpi\n      0x00\n        /* \"src/CharityRaffle.sol\":2691:2699  i < _qty */\n    tag_192:\n      dup2\n      dup2\n      lt\n      tag_193\n      jumpi\n        /* \"src/CharityRaffle.sol\":356:6061  contract CharityRaffle is OwnableUpgradeable, VRFConsumerBaseV2PlusCustom {... */\n      pop\n      mload(0x40)\n      swap1\n      dup2\n      mstore\n        /* \"src/CharityRaffle.sol\":2775:2808  TicketPurchased(msg.sender, _qty) */\n      0x0668f5b446eb814fe35b3206f43f14bd8567ba04ddaf7a3ee56516929ab22ccb\n        /* \"src/CharityRaffle.sol\":356:6061  contract CharityRaffle is OwnableUpgradeable, VRFConsumerBaseV2PlusCustom {... */\n      0x20\n        /* \"src/CharityRaffle.sol\":2444:2454  msg.sender */\n      caller\n        /* \"src/CharityRaffle.sol\":2775:2808  TicketPurchased(msg.sender, _qty) */\n      swap3\n      log2\n        /* \"src/CharityRaffle.sol\":356:6061  contract CharityRaffle is OwnableUpgradeable, VRFConsumerBaseV2PlusCustom {... */\n      stop\n        /* \"src/CharityRaffle.sol\":2701:2704  i++ */\n    tag_193:\n        /* \"src/CharityRaffle.sol\":2720:2732  participants */\n      0x0b\n        /* \"src/CharityRaffle.sol\":356:6061  contract CharityRaffle is OwnableUpgradeable, VRFConsumerBaseV2PlusCustom {... */\n      sload\n      swap1\n      0x010000000000000000\n      dup3\n      lt\n      iszero\n      tag_118\n      jumpi\n      tag_197\n      dup3\n      0x01\n      dup1\n      swap5\n      add\n        /* \"src/CharityRaffle.sol\":2720:2732  participants */\n      0x0b\n        /* \"src/CharityRaffle.sol\":356:6061  contract CharityRaffle is OwnableUpgradeable, VRFConsumerBaseV2PlusCustom {... */\n      sstore\n      tag_1\n      jump\t// in\n    tag_197:\n      dup2\n      sload\n      swap1\n      0x03\n      shl\n        /* \"src/CharityRaffle.sol\":2444:2454  msg.sender */\n      swap1\n      caller\n        /* \"src/CharityRaffle.sol\":356:6061  contract CharityRaffle is OwnableUpgradeable, VRFConsumerBaseV2PlusCustom {... */\n      dup3\n      shl\n      swap2\n      dup6\n      dup1\n      0xa0\n      shl\n      sub\n      swap1\n      shl\n      not\n      and\n      or\n      swap1\n      sstore\n      add\n        /* \"src/CharityRaffle.sol\":2676:2689  uint256 i = 0 */\n      jump(tag_192)\n        /* \"src/CharityRaffle.sol\":356:6061  contract CharityRaffle is OwnableUpgradeable, VRFConsumerBaseV2PlusCustom {... */\n    tag_190:\n      mstore(0x00, shl(0xe0, 0x09bde339))\n      revert(0x00, 0x04)\n    tag_179:\n      mstore(0x00, shl(0xe2, 0x044044a5))\n      revert(0x00, 0x04)\n    tag_176:\n      dup2\n      calldataload\n      dup2\n      mstore\n      0x20\n      swap2\n      dup3\n      add\n      swap2\n      add\n      jump(tag_175)\n    tag_33:\n      jumpi(tag_68, callvalue)\n      jumpi(tag_68, slt(add(not(0x03), calldatasize), 0x00))\n      sload(0x04)\n      mload(0x40)\n      sub(shl(0xa0, 0x01), 0x01)\n      swap1\n      swap2\n      and\n      dup2\n      mstore\n      0x20\n      swap1\n      return\n    tag_31:\n      jumpi(tag_68, callvalue)\n      jumpi(tag_68, slt(add(not(0x03), calldatasize), 0x00))\n        /* \"lib/openzeppelin-contracts-upgradeable/contracts/access/OwnableUpgradeable.sol\":2303:2365  modifier onlyOwner() {... */\n      tag_206\n      tag_9\n      jump\t// in\n    tag_206:\n        /* \"src/CharityRaffle.sol\":5508:5520  charityFunds */\n      0x0a\n        /* \"src/CharityRaffle.sol\":356:6061  contract CharityRaffle is OwnableUpgradeable, VRFConsumerBaseV2PlusCustom {... */\n      sload\n        /* \"src/CharityRaffle.sol\":5508:5524  charityFunds > 0 */\n      dup1\n      iszero\n        /* \"src/CharityRaffle.sol\":356:6061  contract CharityRaffle is OwnableUpgradeable, VRFConsumerBaseV2PlusCustom {... */\n      tag_207\n      jumpi\n      0xff\n        /* \"src/CharityRaffle.sol\":5564:5579  winnersSelected */\n      0x0d\n        /* \"src/CharityRaffle.sol\":356:6061  contract CharityRaffle is OwnableUpgradeable, VRFConsumerBaseV2PlusCustom {... */\n      sload\n      and\n      iszero\n      tag_209\n      jumpi\n        /* \"src/CharityRaffle.sol\":5633:5654  address(this).balance */\n      dup1\n      selfbalance\n        /* \"src/CharityRaffle.sol\":5633:5670  address(this).balance >= charityFunds */\n      lt\n        /* \"src/CharityRaffle.sol\":356:6061  contract CharityRaffle is OwnableUpgradeable, VRFConsumerBaseV2PlusCustom {... */\n      tag_211\n      jumpi\n      and(sub(shl(0xa0, 0x01), 0x01), sload(0x04))\n        /* \"src/CharityRaffle.sol\":5761:5788  charityWallet != address(0) */\n      dup1\n      iszero\n        /* \"src/CharityRaffle.sol\":356:6061  contract CharityRaffle is OwnableUpgradeable, VRFConsumerBaseV2PlusCustom {... */\n      tag_213\n      jumpi\n      0x00\n        /* \"src/CharityRaffle.sol\":5845:5897  payable(charityWallet).call{value: charityFunds}(\"\") */\n      dup1\n      dup1\n      swap4\n      dup2\n      swap4\n      gas\n      call\n      tag_215\n      tag_5\n      jump\t// in\n    tag_215:\n      pop\n        /* \"src/CharityRaffle.sol\":356:6061  contract CharityRaffle is OwnableUpgradeable, VRFConsumerBaseV2PlusCustom {... */\n      iszero\n      tag_216\n      jumpi\n      0x00\n        /* \"src/CharityRaffle.sol\":5508:5520  charityFunds */\n      0x0a\n        /* \"src/CharityRaffle.sol\":356:6061  contract CharityRaffle is OwnableUpgradeable, VRFConsumerBaseV2PlusCustom {... */\n      sstore\n        /* \"src/CharityRaffle.sol\":6021:6052  CharityWithdrawal(charityFunds) */\n      0x5689f9ef5be164071958e27dca7a9df000791288fb23c621501d67b6a808848b\n        /* \"src/CharityRaffle.sol\":356:6061  contract CharityRaffle is OwnableUpgradeable, VRFConsumerBaseV2PlusCustom {... */\n      0x20\n      mload(0x40)\n      0x00\n      dup2\n      mstore\n        /* \"src/CharityRaffle.sol\":6021:6052  CharityWithdrawal(charityFunds) */\n      log1\n        /* \"src/CharityRaffle.sol\":356:6061  contract CharityRaffle is OwnableUpgradeable, VRFConsumerBaseV2PlusCustom {... */\n      stop\n    tag_216:\n      mstore(0x00, shl(0xe3, 0x12171d83))\n      revert(0x00, 0x04)\n    tag_213:\n      mload(0x40)\n      shl(0xe5, 0x461bcd)\n      dup2\n      mstore\n      0x20\n      0x04\n      dup3\n      add\n      mstore\n      0x16\n      0x24\n      dup3\n      add\n      mstore\n      shl(0x52, 0x10da185c9a5d1e481dd85b1b195d081b9bdd081cd95d)\n      0x44\n      dup3\n      add\n      mstore\n      0x64\n      swap1\n      revert\n    tag_211:\n      mload(0x40)\n      shl(0xe5, 0x461bcd)\n      dup2\n      mstore\n      0x20\n      0x04\n      dup3\n      add\n      mstore\n      0x2f\n      0x24\n      dup3\n      add\n      mstore\n      0x496e73756666696369656e7420636f6e74726163742062616c616e636520666f\n      0x44\n      dup3\n      add\n      mstore\n      shl(0x88, 0x7220636861726974792066756e6473)\n      0x64\n      dup3\n      add\n      mstore\n      0x84\n      swap1\n      revert\n    tag_209:\n      mstore(0x00, shl(0xe2, 0x30d747f9))\n      revert(0x00, 0x04)\n    tag_207:\n      mstore(0x00, shl(0xe0, 0x356680b7))\n      revert(0x00, 0x04)\n    tag_29:\n      jumpi(tag_68, callvalue)\n      jumpi(tag_68, slt(add(not(0x03), calldatasize), 0x00))\n        /* \"lib/openzeppelin-contracts-upgradeable/contracts/access/OwnableUpgradeable.sol\":2303:2365  modifier onlyOwner() {... */\n      tag_222\n      tag_9\n      jump\t// in\n    tag_222:\n      mload(0x00)\n      codecopy(0x00, data_47f5c767712c0cb55e0943de27dbb2db3b8bdac1e899af22d477462089a99558, 0x20)\n      mload(0x00)\n      swap1\n      0x00\n      mstore\n        /* \"src/CharityRaffle.sol\":356:6061  contract CharityRaffle is OwnableUpgradeable, VRFConsumerBaseV2PlusCustom {... */\n      dup1\n      sload\n      not(sub(shl(0xa0, 0x01), 0x01))\n      dup2\n      and\n      swap1\n      swap2\n      sstore\n      0x00\n      swap1\n      sub(shl(0xa0, 0x01), 0x01)\n      and\n        /* \"lib/openzeppelin-contracts-upgradeable/contracts/access/OwnableUpgradeable.sol\":3975:4015  OwnershipTransferred(oldOwner, newOwner) */\n      0x8be0079c531659141344cd1fd0a4f28419497f9722a3daafe3b4186f6b6457e0\n        /* \"src/CharityRaffle.sol\":356:6061  contract CharityRaffle is OwnableUpgradeable, VRFConsumerBaseV2PlusCustom {... */\n      dup3\n      dup1\n        /* \"lib/openzeppelin-contracts-upgradeable/contracts/access/OwnableUpgradeable.sol\":3975:4015  OwnershipTransferred(oldOwner, newOwner) */\n      log3\n        /* \"src/CharityRaffle.sol\":356:6061  contract CharityRaffle is OwnableUpgradeable, VRFConsumerBaseV2PlusCustom {... */\n      stop\n    tag_27:\n      jumpi(tag_68, callvalue)\n      jumpi(tag_68, slt(add(not(0x03), calldatasize), 0x00))\n        /* \"src/CharityRaffle.sol\":5053:5063  msg.sender */\n      caller\n        /* \"src/CharityRaffle.sol\":356:6061  contract CharityRaffle is OwnableUpgradeable, VRFConsumerBaseV2PlusCustom {... */\n      0x00\n      mstore\n        /* \"src/CharityRaffle.sol\":5045:5052  winners */\n      0x0c\n        /* \"src/CharityRaffle.sol\":356:6061  contract CharityRaffle is OwnableUpgradeable, VRFConsumerBaseV2PlusCustom {... */\n      0x20\n      mstore\n      jumpi(tag_227, iszero(and(sload(keccak256(0x00, 0x40)), 0xff)))\n        /* \"src/CharityRaffle.sol\":5110:5131  address(this).balance */\n      selfbalance\n        /* \"src/CharityRaffle.sol\":5135:5147  winnerReward */\n      0x09\n        /* \"src/CharityRaffle.sol\":356:6061  contract CharityRaffle is OwnableUpgradeable, VRFConsumerBaseV2PlusCustom {... */\n      sload\n      gt\n      tag_229\n      jumpi\n        /* \"src/CharityRaffle.sol\":5053:5063  msg.sender */\n      caller\n        /* \"src/CharityRaffle.sol\":356:6061  contract CharityRaffle is OwnableUpgradeable, VRFConsumerBaseV2PlusCustom {... */\n      0x00\n      mstore\n        /* \"src/CharityRaffle.sol\":5045:5052  winners */\n      0x0c\n        /* \"src/CharityRaffle.sol\":356:6061  contract CharityRaffle is OwnableUpgradeable, VRFConsumerBaseV2PlusCustom {... */\n      0x20\n      mstore\n      keccak256(0x00, 0x40)\n      not(0xff)\n      dup2\n      sload\n      and\n      swap1\n      sstore\n      0x00\n      dup1\n      dup1\n      dup1\n        /* \"src/CharityRaffle.sol\":5135:5147  winnerReward */\n      0x09\n        /* \"src/CharityRaffle.sol\":356:6061  contract CharityRaffle is OwnableUpgradeable, VRFConsumerBaseV2PlusCustom {... */\n      sload\n        /* \"src/CharityRaffle.sol\":5053:5063  msg.sender */\n      caller\n        /* \"src/CharityRaffle.sol\":5296:5345  payable(msg.sender).call{value: winnerReward}(\"\") */\n      gas\n      call\n      tag_231\n      tag_5\n      jump\t// in\n    tag_231:\n      pop\n        /* \"src/CharityRaffle.sol\":356:6061  contract CharityRaffle is OwnableUpgradeable, VRFConsumerBaseV2PlusCustom {... */\n      iszero\n      tag_216\n      jumpi\n        /* \"src/CharityRaffle.sol\":5053:5063  msg.sender */\n      caller\n        /* \"src/CharityRaffle.sol\":5405:5429  PrizeClaimed(msg.sender) */\n      0x09f058359c5a4d11027ce8027f5f0f4df210cb3ebac92f2c584170ed78624dd8\n        /* \"src/CharityRaffle.sol\":356:6061  contract CharityRaffle is OwnableUpgradeable, VRFConsumerBaseV2PlusCustom {... */\n      0x00\n        /* \"src/CharityRaffle.sol\":5405:5429  PrizeClaimed(msg.sender) */\n      dup1\n      log2\n        /* \"src/CharityRaffle.sol\":356:6061  contract CharityRaffle is OwnableUpgradeable, VRFConsumerBaseV2PlusCustom {... */\n      stop\n    tag_229:\n      mload(0x40)\n      shl(0xe5, 0x461bcd)\n      dup2\n      mstore\n      0x20\n      0x04\n      dup3\n      add\n      mstore\n      0x1d\n      0x24\n      dup3\n      add\n      mstore\n      0x496e73756666696369656e7420636f6e74726163742062616c616e6365000000\n      0x44\n      dup3\n      add\n      mstore\n      0x64\n      swap1\n      revert\n    tag_227:\n      mstore(0x00, shl(0xe1, 0x58cd4fc1))\n      revert(0x00, 0x04)\n    tag_25:\n      jumpi(tag_68, callvalue)\n      jumpi(tag_68, slt(add(not(0x03), calldatasize), 0x20))\n      sub(shl(0xa0, 0x01), 0x01)\n      tag_238\n      tag_2\n      jump\t// in\n    tag_238:\n      and\n      0x00\n      mstore\n        /* \"src/CharityRaffle.sol\":882:921  mapping(address => bool) public winners */\n      0x0c\n        /* \"src/CharityRaffle.sol\":356:6061  contract CharityRaffle is OwnableUpgradeable, VRFConsumerBaseV2PlusCustom {... */\n      0x20\n      mstore\n      0x20\n      and(sload(keccak256(0x00, 0x40)), 0xff)\n      mload(0x40)\n      swap1\n      iszero\n      iszero\n      dup2\n      mstore\n      return\n    tag_23:\n      jumpi(tag_68, callvalue)\n      jumpi(tag_68, slt(add(not(0x03), calldatasize), 0x20))\n      calldataload(0x04)\n        /* \"src/CharityRaffle.sol\":847:876  address[] public participants */\n      0x0b\n        /* \"src/CharityRaffle.sol\":356:6061  contract CharityRaffle is OwnableUpgradeable, VRFConsumerBaseV2PlusCustom {... */\n      sload\n        /* \"src/CharityRaffle.sol\":847:876  address[] public participants */\n      dup2\n      lt\n      iszero\n      tag_68\n      jumpi\n      tag_245\n        /* \"src/CharityRaffle.sol\":356:6061  contract CharityRaffle is OwnableUpgradeable, VRFConsumerBaseV2PlusCustom {... */\n      0x20\n        /* \"src/CharityRaffle.sol\":847:876  address[] public participants */\n      swap2\n      tag_1\n      jump\t// in\n    tag_245:\n        /* \"src/CharityRaffle.sol\":356:6061  contract CharityRaffle is OwnableUpgradeable, VRFConsumerBaseV2PlusCustom {... */\n      swap1\n      sload\n      mload(0x40)\n      0x03\n      swap3\n      swap1\n      swap3\n      shl\n      shr\n      sub(shl(0xa0, 0x01), 0x01)\n      and\n      dup2\n      mstore\n      return\n    tag_21:\n      jumpi(tag_68, callvalue)\n      jumpi(tag_68, slt(add(not(0x03), calldatasize), 0x00))\n      0x20\n        /* \"src/CharityRaffle.sol\":748:773  bytes32 public merkleRoot */\n      0x08\n        /* \"src/CharityRaffle.sol\":356:6061  contract CharityRaffle is OwnableUpgradeable, VRFConsumerBaseV2PlusCustom {... */\n      sload\n      mload(0x40)\n      swap1\n      dup2\n      mstore\n      return\n    tag_19:\n      jumpi(tag_68, callvalue)\n      jumpi(tag_68, slt(add(not(0x03), calldatasize), 0x40))\n      calldataload(0x24)\n      0xffffffffffffffff\n      dup2\n      gt\n      tag_68\n      jumpi\n      calldatasize\n      0x23\n      dup3\n      add\n      slt\n      iszero\n      tag_68\n      jumpi\n      dup1\n      0x04\n      add\n      calldataload\n      0xffffffffffffffff\n      dup2\n      gt\n      tag_68\n      jumpi\n      calldatasize\n      0x24\n      dup3\n      0x05\n      shl\n      dup5\n      add\n      add\n      gt\n      tag_68\n      jumpi\n      and(sub(shl(0xa0, 0x01), 0x01), sload(0x00))\n        /* \"src/VRFConsumerBaseV2PlusCustom.sol\":7425:7435  msg.sender */\n      caller\n        /* \"src/VRFConsumerBaseV2PlusCustom.sol\":7425:7464  msg.sender != address(s_vrfCoordinator) */\n      dup2\n      swap1\n      sub\n        /* \"src/VRFConsumerBaseV2PlusCustom.sol\":7421:7608  if (msg.sender != address(s_vrfCoordinator)) {... */\n      tag_262\n      jumpi\n        /* \"src/CharityRaffle.sol\":356:6061  contract CharityRaffle is OwnableUpgradeable, VRFConsumerBaseV2PlusCustom {... */\n      pop\n        /* \"src/CharityRaffle.sol\":4156:4168  vrfRequestId */\n      0x07\n        /* \"src/CharityRaffle.sol\":356:6061  contract CharityRaffle is OwnableUpgradeable, VRFConsumerBaseV2PlusCustom {... */\n      sload\n      calldataload(0x04)\n        /* \"src/CharityRaffle.sol\":4143:4168  requestId == vrfRequestId */\n      sub\n        /* \"src/CharityRaffle.sol\":356:6061  contract CharityRaffle is OwnableUpgradeable, VRFConsumerBaseV2PlusCustom {... */\n      tag_264\n      jumpi\n        /* \"src/CharityRaffle.sol\":4227:4239  numOfWinners */\n      0x02\n        /* \"src/CharityRaffle.sol\":356:6061  contract CharityRaffle is OwnableUpgradeable, VRFConsumerBaseV2PlusCustom {... */\n      sload\n        /* \"src/CharityRaffle.sol\":4205:4239  randomWords.length == numOfWinners */\n      dup1\n      dup3\n      sub\n        /* \"src/CharityRaffle.sol\":356:6061  contract CharityRaffle is OwnableUpgradeable, VRFConsumerBaseV2PlusCustom {... */\n      tag_266\n      jumpi\n      tag_268\n      tag_269\n      dup3\n      tag_4\n      jump\t// in\n    tag_269:\n      swap2\n      tag_270\n      mload(0x40)\n      swap4\n      dup5\n      tag_3\n      jump\t// in\n    tag_270:\n      dup1\n      dup4\n      mstore\n      tag_4\n      jump\t// in\n    tag_268:\n      0x20\n      dup3\n      add\n      swap4\n      swap1\n      not(0x1f)\n      add\n      calldatasize\n      dup6\n      calldatacopy\n      0x00\n        /* \"src/CharityRaffle.sol\":4343:4984  for (uint256 i = 0; i < numOfWinners; i++) {... */\n      swap3\n        /* \"src/CharityRaffle.sol\":4381:4384  i++ */\n    tag_271:\n        /* \"src/CharityRaffle.sol\":4227:4239  numOfWinners */\n      0x02\n        /* \"src/CharityRaffle.sol\":356:6061  contract CharityRaffle is OwnableUpgradeable, VRFConsumerBaseV2PlusCustom {... */\n      sload\n        /* \"src/CharityRaffle.sol\":4363:4379  i < numOfWinners */\n      dup5\n      lt\n      iszero\n      tag_89\n      jumpi\n        /* \"src/CharityRaffle.sol\":356:6061  contract CharityRaffle is OwnableUpgradeable, VRFConsumerBaseV2PlusCustom {... */\n      dup1\n      dup5\n      lt\n      iszero\n      tag_274\n      jumpi\n      0x24\n      dup5\n      0x05\n      shl\n      dup4\n      add\n      add\n      calldataload\n        /* \"src/CharityRaffle.sol\":4450:4888  while (true) {... */\n    tag_276:\n        /* \"src/CharityRaffle.sol\":4516:4528  participants */\n      0x0b\n        /* \"src/CharityRaffle.sol\":356:6061  contract CharityRaffle is OwnableUpgradeable, VRFConsumerBaseV2PlusCustom {... */\n      sload\n      dup1\n      iszero\n      tag_277\n      jumpi\n        /* \"src/CharityRaffle.sol\":4570:4595  participants[winnerIndex] */\n      tag_279\n        /* \"src/CharityRaffle.sol\":356:6061  contract CharityRaffle is OwnableUpgradeable, VRFConsumerBaseV2PlusCustom {... */\n      swap1\n      dup3\n      mod\n        /* \"src/CharityRaffle.sol\":4570:4595  participants[winnerIndex] */\n      tag_1\n      jump\t// in\n    tag_279:\n        /* \"src/CharityRaffle.sol\":356:6061  contract CharityRaffle is OwnableUpgradeable, VRFConsumerBaseV2PlusCustom {... */\n      swap1\n      sload\n      0x03\n      swap2\n      swap1\n      swap2\n      shl\n      shr\n      sub(shl(0xa0, 0x01), 0x01)\n      and\n      0x00\n      dup2\n      dup2\n      mstore\n        /* \"src/CharityRaffle.sol\":4619:4626  winners */\n      0x0c\n        /* \"src/CharityRaffle.sol\":356:6061  contract CharityRaffle is OwnableUpgradeable, VRFConsumerBaseV2PlusCustom {... */\n      0x20\n      mstore\n      0x40\n      swap1\n      keccak256\n      sload\n      0xff\n      and\n        /* \"src/CharityRaffle.sol\":4618:4634  !winners[winner] */\n      iszero\n        /* \"src/CharityRaffle.sol\":4614:4772  if (!winners[winner]) {... */\n      tag_280\n      jumpi\n        /* \"src/CharityRaffle.sol\":356:6061  contract CharityRaffle is OwnableUpgradeable, VRFConsumerBaseV2PlusCustom {... */\n      pop\n      0x01\n      dup2\n      add\n      dup1\n      swap2\n      gt\n      tag_127\n      jumpi\n      not(0x00)\n      swap1\n      mod\n        /* \"src/CharityRaffle.sol\":4450:4888  while (true) {... */\n      jump(tag_276)\n        /* \"src/CharityRaffle.sol\":4614:4772  if (!winners[winner]) {... */\n    tag_280:\n        /* \"src/CharityRaffle.sol\":356:6061  contract CharityRaffle is OwnableUpgradeable, VRFConsumerBaseV2PlusCustom {... */\n      dup1\n      swap2\n      pop\n      0x00\n      swap6\n      swap3\n      swap6\n      mstore\n        /* \"src/CharityRaffle.sol\":4619:4626  winners */\n      0x0c\n        /* \"src/CharityRaffle.sol\":356:6061  contract CharityRaffle is OwnableUpgradeable, VRFConsumerBaseV2PlusCustom {... */\n      0x20\n      mstore\n      keccak256(0x00, 0x40)\n      0x01\n      not(0xff)\n      dup3\n      sload\n      and\n      or\n      swap1\n      sstore\n        /* \"src/CharityRaffle.sol\":4702:4726  winnersArray[i] = winner */\n      tag_284\n      dup3\n      dup6\n      tag_8\n      jump\t// in\n    tag_284:\n        /* \"src/CharityRaffle.sol\":356:6061  contract CharityRaffle is OwnableUpgradeable, VRFConsumerBaseV2PlusCustom {... */\n      mstore\n      0x01\n      not(0xff)\n        /* \"src/CharityRaffle.sol\":4902:4924  winnersSelected = true */\n      0x0d\n        /* \"src/CharityRaffle.sol\":356:6061  contract CharityRaffle is OwnableUpgradeable, VRFConsumerBaseV2PlusCustom {... */\n      sload\n      and\n      or\n        /* \"src/CharityRaffle.sol\":4902:4924  winnersSelected = true */\n      0x0d\n        /* \"src/CharityRaffle.sol\":356:6061  contract CharityRaffle is OwnableUpgradeable, VRFConsumerBaseV2PlusCustom {... */\n      sstore\n      mload(0x40)\n      0x20\n      dup2\n      add\n      0x20\n      dup3\n      mstore\n      dup5\n      mload\n      dup1\n      swap2\n      mstore\n      0x40\n      dup3\n      add\n      swap1\n      dup8\n      swap1\n      0x00\n      swap1\n    tag_285:\n      dup1\n      dup3\n      lt\n      tag_286\n      jumpi\n        /* \"src/CharityRaffle.sol\":4944:4973  WinnersSelected(winnersArray) */\n      pop\n      pop\n      pop\n      dup2\n        /* \"src/CharityRaffle.sol\":356:6061  contract CharityRaffle is OwnableUpgradeable, VRFConsumerBaseV2PlusCustom {... */\n      0x01\n        /* \"src/CharityRaffle.sol\":4944:4973  WinnersSelected(winnersArray) */\n      swap4\n      swap3\n      0x32a1b5731a757f192a06ca973715ca4dbc42c2d15323cabaa74e0a2d5dc088e4\n      swap3\n      sub\n      swap1\n      log1\n        /* \"src/CharityRaffle.sol\":356:6061  contract CharityRaffle is OwnableUpgradeable, VRFConsumerBaseV2PlusCustom {... */\n      add\n        /* \"src/CharityRaffle.sol\":4348:4361  uint256 i = 0 */\n      swap3\n      jump(tag_271)\n        /* \"src/CharityRaffle.sol\":356:6061  contract CharityRaffle is OwnableUpgradeable, VRFConsumerBaseV2PlusCustom {... */\n    tag_286:\n      dup3\n      mload\n      sub(shl(0xa0, 0x01), 0x01)\n      and\n      dup5\n      mstore\n      0x20\n      swap4\n      dup5\n      add\n      swap4\n      swap1\n      swap3\n      add\n      swap2\n      0x01\n      swap1\n      swap2\n      add\n      swap1\n      jump(tag_285)\n    tag_277:\n      mstore(0x00, shl(0xe0, 0x4e487b71))\n      mstore(0x04, 0x12)\n      revert(0x00, 0x24)\n    tag_274:\n      mstore(0x00, shl(0xe0, 0x4e487b71))\n      mstore(0x04, 0x32)\n      revert(0x00, 0x24)\n    tag_266:\n      mstore(0x00, shl(0xe1, 0x1f9efadb))\n      revert(0x00, 0x04)\n    tag_264:\n      mstore(0x00, shl(0xe0, 0x41abc801))\n      revert(0x00, 0x04)\n        /* \"src/VRFConsumerBaseV2PlusCustom.sol\":7421:7608  if (msg.sender != address(s_vrfCoordinator)) {... */\n    tag_262:\n        /* \"src/VRFConsumerBaseV2PlusCustom.sol\":7487:7597  OnlyCoordinatorCanFulfill(... */\n      shl(0xe2, 0x073e64fd)\n        /* \"src/CharityRaffle.sol\":356:6061  contract CharityRaffle is OwnableUpgradeable, VRFConsumerBaseV2PlusCustom {... */\n      0x00\n        /* \"src/VRFConsumerBaseV2PlusCustom.sol\":7487:7597  OnlyCoordinatorCanFulfill(... */\n      mstore\n        /* \"src/VRFConsumerBaseV2PlusCustom.sol\":7425:7435  msg.sender */\n      caller\n        /* \"src/CharityRaffle.sol\":356:6061  contract CharityRaffle is OwnableUpgradeable, VRFConsumerBaseV2PlusCustom {... */\n      0x04\n      mstore\n      0x24\n      mstore\n      0x44\n      0x00\n        /* \"src/VRFConsumerBaseV2PlusCustom.sol\":7487:7597  OnlyCoordinatorCanFulfill(... */\n      revert\n        /* \"src/CharityRaffle.sol\":356:6061  contract CharityRaffle is OwnableUpgradeable, VRFConsumerBaseV2PlusCustom {... */\n    tag_17:\n      jumpi(tag_68, callvalue)\n      jumpi(tag_68, slt(add(not(0x03), calldatasize), 0x00))\n      0x20\n        /* \"src/CharityRaffle.sol\":715:742  uint256 public vrfRequestId */\n      0x07\n        /* \"src/CharityRaffle.sol\":356:6061  contract CharityRaffle is OwnableUpgradeable, VRFConsumerBaseV2PlusCustom {... */\n      sload\n      mload(0x40)\n      swap1\n      dup2\n      mstore\n      return\n    tag_15:\n      jumpi(tag_68, callvalue)\n      jumpi(tag_68, slt(add(not(0x03), calldatasize), 0x00))\n      0x20\n        /* \"src/CharityRaffle.sol\":509:535  uint256 public ticketPrice */\n      0x01\n        /* \"src/CharityRaffle.sol\":356:6061  contract CharityRaffle is OwnableUpgradeable, VRFConsumerBaseV2PlusCustom {... */\n      sload\n      mload(0x40)\n      swap1\n      dup2\n      mstore\n      return\n    tag_13:\n      jumpi(tag_68, callvalue)\n      jumpi(tag_68, slt(add(not(0x03), calldatasize), 0x00))\n      0x20\n      swap1\n        /* \"src/CharityRaffle.sol\":684:709  bytes32 public vrfKeyHash */\n      0x06\n        /* \"src/CharityRaffle.sol\":356:6061  contract CharityRaffle is OwnableUpgradeable, VRFConsumerBaseV2PlusCustom {... */\n      sload\n      dup2\n      mstore\n      return\n    tag_1:\n        /* \"src/CharityRaffle.sol\":4516:4528  participants */\n      0x0b\n        /* \"src/CharityRaffle.sol\":356:6061  contract CharityRaffle is OwnableUpgradeable, VRFConsumerBaseV2PlusCustom {... */\n      sload\n      dup2\n      lt\n      iszero\n      tag_274\n      jumpi\n        /* \"src/CharityRaffle.sol\":4516:4528  participants */\n      0x0b\n      0x00\n        /* \"src/CharityRaffle.sol\":356:6061  contract CharityRaffle is OwnableUpgradeable, VRFConsumerBaseV2PlusCustom {... */\n      mstore\n      keccak256(0x00, 0x20)\n      add\n      swap1\n      0x00\n      swap1\n      jump\t// out\n    tag_2:\n      calldataload(0x04)\n      swap1\n      sub(shl(0xa0, 0x01), 0x01)\n      dup3\n      and\n      dup3\n      sub\n      tag_68\n      jumpi\n      jump\t// out\n    tag_3:\n      swap1\n      0x1f\n      dup1\n      not\n      swap2\n      add\n      and\n      dup2\n      add\n      swap1\n      dup2\n      lt\n      0xffffffffffffffff\n      dup3\n      gt\n      or\n      tag_118\n      jumpi\n      0x40\n      mstore\n      jump\t// out\n    tag_4:\n      0xffffffffffffffff\n      dup2\n      gt\n      tag_118\n      jumpi\n      0x05\n      shl\n      0x20\n      add\n      swap1\n      jump\t// out\n    tag_5:\n      jumpi(tag_308, iszero(returndatasize))\n      returndatasize\n      swap1\n      0xffffffffffffffff\n      dup3\n      gt\n      tag_118\n      jumpi\n      mload(0x40)\n      swap2\n      tag_312\n      0x1f\n      dup3\n      add\n      not(0x1f)\n      and\n      0x20\n      add\n      dup5\n      tag_3\n      jump\t// in\n    tag_312:\n      dup3\n      mstore\n      returndatasize\n      0x00\n      0x20\n      dup5\n      add\n      returndatacopy\n      jump\t// out\n    tag_308:\n      0x60\n      swap1\n      jump\t// out\n    tag_6:\n      dup2\n      dup2\n      mul\n      swap3\n      swap2\n      dup2\n      iszero\n      swap2\n      dup5\n      div\n      eq\n      or\n      iszero\n      tag_127\n      jumpi\n      jump\t// out\n        /* \"lib/openzeppelin-contracts-upgradeable/contracts/access/OwnableUpgradeable.sol\":3405:3620  function transferOwnership(address newOwner) public virtual onlyOwner {... */\n    tag_7:\n      sub(shl(0xa0, 0x01), 0x01)\n        /* \"src/CharityRaffle.sol\":356:6061  contract CharityRaffle is OwnableUpgradeable, VRFConsumerBaseV2PlusCustom {... */\n      and\n        /* \"lib/openzeppelin-contracts-upgradeable/contracts/access/OwnableUpgradeable.sol\":3489:3511  newOwner == address(0) */\n      dup1\n      iszero\n        /* \"lib/openzeppelin-contracts-upgradeable/contracts/access/OwnableUpgradeable.sol\":3485:3576  if (newOwner == address(0)) {... */\n      tag_316\n      jumpi\n      mload(0x00)\n      codecopy(0x00, data_47f5c767712c0cb55e0943de27dbb2db3b8bdac1e899af22d477462089a99558, 0x20)\n      mload(0x00)\n      swap1\n      0x00\n      mstore\n        /* \"src/CharityRaffle.sol\":356:6061  contract CharityRaffle is OwnableUpgradeable, VRFConsumerBaseV2PlusCustom {... */\n      dup1\n      sload\n      not(sub(shl(0xa0, 0x01), 0x01))\n      dup2\n      and\n      dup4\n      or\n      swap1\n      swap2\n      sstore\n      sub(shl(0xa0, 0x01), 0x01)\n      and\n        /* \"lib/openzeppelin-contracts-upgradeable/contracts/access/OwnableUpgradeable.sol\":3975:4015  OwnershipTransferred(oldOwner, newOwner) */\n      0x8be0079c531659141344cd1fd0a4f28419497f9722a3daafe3b4186f6b6457e0\n      0x00\n      dup1\n      log3\n        /* \"lib/openzeppelin-contracts-upgradeable/contracts/access/OwnableUpgradeable.sol\":3405:3620  function transferOwnership(address newOwner) public virtual onlyOwner {... */\n      jump\t// out\n        /* \"lib/openzeppelin-contracts-upgradeable/contracts/access/OwnableUpgradeable.sol\":3485:3576  if (newOwner == address(0)) {... */\n    tag_316:\n        /* \"lib/openzeppelin-contracts-upgradeable/contracts/access/OwnableUpgradeable.sol\":3534:3565  OwnableInvalidOwner(address(0)) */\n      shl(0xe0, 0x1e4fbdf7)\n        /* \"lib/openzeppelin-contracts-upgradeable/contracts/access/OwnableUpgradeable.sol\":3509:3510  0 */\n      0x00\n        /* \"lib/openzeppelin-contracts-upgradeable/contracts/access/OwnableUpgradeable.sol\":3534:3565  OwnableInvalidOwner(address(0)) */\n      mstore\n        /* \"lib/openzeppelin-contracts-upgradeable/contracts/access/OwnableUpgradeable.sol\":3509:3510  0 */\n      0x00\n        /* \"lib/openzeppelin-contracts-upgradeable/contracts/access/OwnableUpgradeable.sol\":3534:3565  OwnableInvalidOwner(address(0)) */\n      0x04\n        /* \"src/CharityRaffle.sol\":356:6061  contract CharityRaffle is OwnableUpgradeable, VRFConsumerBaseV2PlusCustom {... */\n      mstore\n      0x24\n        /* \"lib/openzeppelin-contracts-upgradeable/contracts/access/OwnableUpgradeable.sol\":3509:3510  0 */\n      0x00\n        /* \"lib/openzeppelin-contracts-upgradeable/contracts/access/OwnableUpgradeable.sol\":3534:3565  OwnableInvalidOwner(address(0)) */\n      revert\n        /* \"src/CharityRaffle.sol\":356:6061  contract CharityRaffle is OwnableUpgradeable, VRFConsumerBaseV2PlusCustom {... */\n    tag_8:\n      dup1\n      mload\n      dup3\n      lt\n      iszero\n      tag_274\n      jumpi\n      0x20\n      swap2\n      0x05\n      shl\n      add\n      add\n      swap1\n      jump\t// out\n        /* \"lib/openzeppelin-contracts-upgradeable/contracts/access/OwnableUpgradeable.sol\":2658:2820  function _checkOwner() internal view virtual {... */\n    tag_9:\n      mload(0x00)\n      codecopy(0x00, data_47f5c767712c0cb55e0943de27dbb2db3b8bdac1e899af22d477462089a99558, 0x20)\n      mload(0x00)\n      swap1\n      0x00\n      mstore\n        /* \"src/CharityRaffle.sol\":356:6061  contract CharityRaffle is OwnableUpgradeable, VRFConsumerBaseV2PlusCustom {... */\n      sload\n      sub(shl(0xa0, 0x01), 0x01)\n      and\n        /* \"lib/openzeppelin-contracts-upgradeable/contracts/utils/ContextUpgradeable.sol\":966:976  msg.sender */\n      caller\n        /* \"lib/openzeppelin-contracts-upgradeable/contracts/access/OwnableUpgradeable.sol\":2717:2740  owner() != _msgSender() */\n      sub\n        /* \"lib/openzeppelin-contracts-upgradeable/contracts/access/OwnableUpgradeable.sol\":2713:2814  if (owner() != _msgSender()) {... */\n      tag_320\n      jumpi\n        /* \"lib/openzeppelin-contracts-upgradeable/contracts/access/OwnableUpgradeable.sol\":2658:2820  function _checkOwner() internal view virtual {... */\n      jump\t// out\n        /* \"lib/openzeppelin-contracts-upgradeable/contracts/access/OwnableUpgradeable.sol\":2713:2814  if (owner() != _msgSender()) {... */\n    tag_320:\n        /* \"lib/openzeppelin-contracts-upgradeable/contracts/access/OwnableUpgradeable.sol\":2763:2803  OwnableUnauthorizedAccount(_msgSender()) */\n      mstore(0x00, shl(0xe0, 0x118cdaa7))\n        /* \"lib/openzeppelin-contracts-upgradeable/contracts/utils/ContextUpgradeable.sol\":966:976  msg.sender */\n      caller\n        /* \"lib/openzeppelin-contracts-upgradeable/contracts/access/OwnableUpgradeable.sol\":2763:2803  OwnableUnauthorizedAccount(_msgSender()) */\n      0x04\n        /* \"src/CharityRaffle.sol\":356:6061  contract CharityRaffle is OwnableUpgradeable, VRFConsumerBaseV2PlusCustom {... */\n      mstore\n      0x24\n      0x00\n        /* \"lib/openzeppelin-contracts-upgradeable/contracts/access/OwnableUpgradeable.sol\":2763:2803  OwnableUnauthorizedAccount(_msgSender()) */\n      revert\n        /* \"lib/openzeppelin-contracts-upgradeable/contracts/proxy/utils/Initializable.sol\":7082:7223  function _checkInitializing() internal view virtual {... */\n    tag_10:\n        /* \"src/CharityRaffle.sol\":356:6061  contract CharityRaffle is OwnableUpgradeable, VRFConsumerBaseV2PlusCustom {... */\n      0xff\n      mload(0x00)\n      codecopy(0x00, data_e28a5566b8a884201ab44e2d991177ce8b88325e02e52cbc3da6e67b3ecf29c6, 0x20)\n      mload(0x00)\n      swap1\n      0x00\n      mstore\n      sload\n      0x40\n      shr\n      and\n        /* \"lib/openzeppelin-contracts-upgradeable/contracts/proxy/utils/Initializable.sol\":7148:7166  !_isInitializing() */\n      iszero\n        /* \"lib/openzeppelin-contracts-upgradeable/contracts/proxy/utils/Initializable.sol\":7144:7217  if (!_isInitializing()) {... */\n      tag_322\n      jumpi\n        /* \"lib/openzeppelin-contracts-upgradeable/contracts/proxy/utils/Initializable.sol\":7082:7223  function _checkInitializing() internal view virtual {... */\n      jump\t// out\n        /* \"lib/openzeppelin-contracts-upgradeable/contracts/proxy/utils/Initializable.sol\":7144:7217  if (!_isInitializing()) {... */\n    tag_322:\n        /* \"lib/openzeppelin-contracts-upgradeable/contracts/proxy/utils/Initializable.sol\":7189:7206  NotInitializing() */\n      mstore(0x00, shl(0xe3, 0x1afcd79f))\n      revert(0x00, 0x04)\n    stop\n    data_47f5c767712c0cb55e0943de27dbb2db3b8bdac1e899af22d477462089a99558 9016d09d72d40fdae2fd8ceac6b6234c7706214fd39c1cd1e609a0528c199300\n    data_e28a5566b8a884201ab44e2d991177ce8b88325e02e52cbc3da6e67b3ecf29c6 f0c57e16840df040f15088dc2f81fe391c3923bec73e23a9662efc9c229c6a00\n\n    auxdata: 0xa2646970667358221220f856e70277f81e88c99771502b6a8ad444179617e01bd60cc7e8c8daf9d1686364736f6c634300081e0033\n}\n",
				"bytecode": {
					"linkReferences": {},
					"object": "608080604052346015576110e3908161001a8239f35b5f80fdfe6080806040526004361015610012575f80fd5b5f3560e01c908163041d443e14610eb6575080631209b1f614610e9957806318a7ea5f14610e7c5780631fe543e314610c5b5780632eb4a7ab14610c3e57806335c1d34914610bfc5780636bd5450a14610bbf57806370740ac914610aea578063715018a614610a8357806374552552146109305780637b208769146109085780638a89c8c9146107525780638b39989b146107355780638bc53285146107135780638da5cb5b146106df5780638ea981171461060a578063918f8674146105ee57806398617e2a146105d157806398afca73146103995780639eccacf614610372578063b9705a0314610355578063c7383be814610338578063e17901d81461031b578063f2fde38b146102f55763f9f231861461012f575f80fd5b346102f15760a03660031901126102f157610148610ee8565b6024356001600160a01b038116908190036102f1575f51602061108e5f395f51905f525460ff8160401c16159267ffffffffffffffff8216801590816102e9575b60011490816102df575b1590816102d6575b506102c75767ffffffffffffffff1982166001175f51602061108e5f395f51905f52556101de918461029b575b506101d1611042565b6101d9611042565b610f8a565b739ddfaca8183c41ad55329bdeed9f6a8d53168b1b6001600160601b0360a01b5f5416175f5566038d7ea4c6800060015560028055610bb86003556001600160601b0360a01b600454161760045560443560055560643560065560843560085561024457005b68ff0000000000000000195f51602061108e5f395f51905f5254165f51602061108e5f395f51905f52557fc7f505b2f371ae2175ee4913f4499e1f2633a7b5936321eed1cdaeb6115181d2602060405160018152a1005b68ffffffffffffffffff191668010000000000000001175f51602061108e5f395f51905f52555f6101c8565b63f92ee8a960e01b5f5260045ffd5b9050155f61019b565b303b159150610193565b859150610189565b5f80fd5b346102f15760203660031901126102f157610319610311610ee8565b6101d961100f565b005b346102f1575f3660031901126102f1576020600a54604051908152f35b346102f1575f3660031901126102f1576020600254604051908152f35b346102f1575f3660031901126102f1576020600954604051908152f35b346102f1575f3660031901126102f1575f546040516001600160a01b039091168152602090f35b346102f1575f3660031901126102f1576103b161100f565b6007546105c25760018060a01b035f54166006546005549163ffffffff6002541690604051936020850185811067ffffffffffffffff8211176105ae576040525f85526040519463125fa26760e31b602087015251151560248601526024855261041c604486610efe565b6040519460c086019486861067ffffffffffffffff8711176105ae5761ffff9660205f93610104938299604052835281830195865263ffffffff604084019860038a528160608601620f424081526080870192835260a087019485526040519d8e9c8d9b8c99634d8e1c2f60e11b8b528960048c01525160248b01525160448a01525116606488015251166084860152511660a48401525160c060c484015280519182918260e4860152018484015e8181018301849052601f01601f191681010301925af19081156105a3575f91610571575b5080600755610503600b5460015490610f77565b61052361271061051560035484610f77565b048060095560025490610f77565b810390811161055d577f9ac10fb18c93d33ad7b0a941897aef048d0f8d30756684e82b4552ba12764d4591602091600a55604051908152a1005b634e487b7160e01b5f52601160045260245ffd5b90506020813d60201161059b575b8161058c60209383610efe565b810103126102f15751816104ef565b3d915061057f565b6040513d5f823e3d90fd5b634e487b7160e01b5f52604160045260245ffd5b630d5bae9560e01b5f5260045ffd5b346102f1575f3660031901126102f1576020600354604051908152f35b346102f1575f3660031901126102f15760206040516127108152f35b346102f15760203660031901126102f157610623610ee8565b5f51602061106e5f395f51905f52546001600160a01b031633811415806106cb575b6106a757506001600160a01b03168015610698576020817fd1a6a14209a385a964d036e404cb5cfb71f4000cdb03c9366292430787261be6926001600160601b0360a01b5f5416175f55604051908152a1005b63d92e233d60e01b5f5260045ffd5b60018060a01b035f54169063061db9c160e01b5f523360045260245260445260645ffd5b505f546001600160a01b0316331415610645565b346102f1575f3660031901126102f1575f51602061106e5f395f51905f52546040516001600160a01b039091168152602090f35b346102f1575f3660031901126102f157602060ff600d54166040519015158152f35b346102f1575f3660031901126102f1576020600554604051908152f35b60403660031901126102f15760243560043567ffffffffffffffff82116102f157366023830112156102f15781600401359161078d83610f20565b9261079b6040519485610efe565b8084526024602085019160051b830101913683116102f157602401905b8282106108f8575050506107ce81600154610f77565b34036108e9576040516020810190338252602081526107ee604082610efe565b5190209060085491604051602081019182526020815261080f604082610efe565b519020905f915b8451831015610858576108298386610ffb565b519081811015610847575f52602052600160405f205b920191610816565b905f52602052600160405f2061083f565b83036108da575f5b81811061089657506040519081527f0668f5b446eb814fe35b3206f43f14bd8567ba04ddaf7a3ee56516929ab22ccb60203392a2005b600b5490680100000000000000008210156105ae576108bc826001809401600b55610ed0565b81549060031b9033821b91858060a01b03901b191617905501610860565b6309bde33960e01b5f5260045ffd5b63044044a560e21b5f5260045ffd5b81358152602091820191016107b8565b346102f1575f3660031901126102f1576004546040516001600160a01b039091168152602090f35b346102f1575f3660031901126102f15761094861100f565b600a548015610a745760ff600d541615610a6557804710610a08576004546001600160a01b031680156109ca575f80809381935af1610985610f38565b50156109bb575f600a557f5689f9ef5be164071958e27dca7a9df000791288fb23c621501d67b6a808848b60206040515f8152a1005b6312171d8360e31b5f5260045ffd5b60405162461bcd60e51b815260206004820152601660248201527510da185c9a5d1e481dd85b1b195d081b9bdd081cd95d60521b6044820152606490fd5b60405162461bcd60e51b815260206004820152602f60248201527f496e73756666696369656e7420636f6e74726163742062616c616e636520666f60448201526e7220636861726974792066756e647360881b6064820152608490fd5b6330d747f960e21b5f5260045ffd5b63356680b760e01b5f5260045ffd5b346102f1575f3660031901126102f157610a9b61100f565b5f51602061106e5f395f51905f5280546001600160a01b031981169091555f906001600160a01b03167f8be0079c531659141344cd1fd0a4f28419497f9722a3daafe3b4186f6b6457e08280a3005b346102f1575f3660031901126102f157335f52600c60205260ff60405f20541615610bb0574760095411610b6b57335f52600c60205260405f2060ff1981541690555f808080600954335af1610b3e610f38565b50156109bb57337f09f058359c5a4d11027ce8027f5f0f4df210cb3ebac92f2c584170ed78624dd85f80a2005b60405162461bcd60e51b815260206004820152601d60248201527f496e73756666696369656e7420636f6e74726163742062616c616e63650000006044820152606490fd5b6358cd4fc160e11b5f5260045ffd5b346102f15760203660031901126102f1576001600160a01b03610be0610ee8565b165f52600c602052602060ff60405f2054166040519015158152f35b346102f15760203660031901126102f157600435600b548110156102f157610c25602091610ed0565b905460405160039290921b1c6001600160a01b03168152f35b346102f1575f3660031901126102f1576020600854604051908152f35b346102f15760403660031901126102f15760243567ffffffffffffffff81116102f157366023820112156102f157806004013567ffffffffffffffff81116102f1573660248260051b840101116102f1575f546001600160a01b031633819003610e66575060075460043503610e5757600254808203610e4857610cf7610ce182610f20565b91610cef6040519384610efe565b808352610f20565b602082019390601f19013685375f925b6002548410156103195780841015610e345760248460051b830101355b600b548015610e2057610d38908206610ed0565b905460039190911b1c6001600160a01b03165f818152600c602052604090205460ff1615610d7557506001810180911161055d575f199006610d24565b8091505f95929552600c60205260405f20600160ff19825416179055610d9b8285610ffb565b52600160ff19600d541617600d5560405160208101602082528451809152604082019087905f905b808210610dfe5750505081600193927f32a1b5731a757f192a06ca973715ca4dbc42c2d15323cabaa74e0a2d5dc088e4920390a10192610d07565b82516001600160a01b0316845260209384019390920191600190910190610dc3565b634e487b7160e01b5f52601260045260245ffd5b634e487b7160e01b5f52603260045260245ffd5b631f9efadb60e11b5f5260045ffd5b6341abc80160e01b5f5260045ffd5b63073e64fd60e21b5f523360045260245260445ffd5b346102f1575f3660031901126102f1576020600754604051908152f35b346102f1575f3660031901126102f1576020600154604051908152f35b346102f1575f3660031901126102f1576020906006548152f35b600b54811015610e3457600b5f5260205f2001905f90565b600435906001600160a01b03821682036102f157565b90601f8019910116810190811067ffffffffffffffff8211176105ae57604052565b67ffffffffffffffff81116105ae5760051b60200190565b3d15610f72573d9067ffffffffffffffff82116105ae5760405191610f67601f8201601f191660200184610efe565b82523d5f602084013e565b606090565b8181029291811591840414171561055d57565b6001600160a01b03168015610fe8575f51602061106e5f395f51905f5280546001600160a01b0319811683179091556001600160a01b03167f8be0079c531659141344cd1fd0a4f28419497f9722a3daafe3b4186f6b6457e05f80a3565b631e4fbdf760e01b5f525f60045260245ffd5b8051821015610e345760209160051b010190565b5f51602061106e5f395f51905f52546001600160a01b0316330361102f57565b63118cdaa760e01b5f523360045260245ffd5b60ff5f51602061108e5f395f51905f525460401c161561105e57565b631afcd79f60e31b5f5260045ffdfe9016d09d72d40fdae2fd8ceac6b6234c7706214fd39c1cd1e609a0528c199300f0c57e16840df040f15088dc2f81fe391c3923bec73e23a9662efc9c229c6a00a2646970667358221220f856e70277f81e88c99771502b6a8ad444179617e01bd60cc7e8c8daf9d1686364736f6c634300081e0033",
					"opcodes": "PUSH1 0x80 DUP1 PUSH1 0x40 MSTORE CALLVALUE PUSH1 0x15 JUMPI PUSH2 0x10E3 SWAP1 DUP2 PUSH2 0x1A DUP3 CODECOPY RETURN JUMPDEST PUSH0 DUP1 REVERT INVALID PUSH1 0x80 DUP1 PUSH1 0x40 MSTORE PUSH1 0x4 CALLDATASIZE LT ISZERO PUSH2 0x12 JUMPI PUSH0 DUP1 REVERT JUMPDEST PUSH0 CALLDATALOAD PUSH1 0xE0 SHR SWAP1 DUP2 PUSH4 0x41D443E EQ PUSH2 0xEB6 JUMPI POP DUP1 PUSH4 0x1209B1F6 EQ PUSH2 0xE99 JUMPI DUP1 PUSH4 0x18A7EA5F EQ PUSH2 0xE7C JUMPI DUP1 PUSH4 0x1FE543E3 EQ PUSH2 0xC5B JUMPI DUP1 PUSH4 0x2EB4A7AB EQ PUSH2 0xC3E JUMPI DUP1 PUSH4 0x35C1D349 EQ PUSH2 0xBFC JUMPI DUP1 PUSH4 0x6BD5450A EQ PUSH2 0xBBF JUMPI DUP1 PUSH4 0x70740AC9 EQ PUSH2 0xAEA JUMPI DUP1 PUSH4 0x715018A6 EQ PUSH2 0xA83 JUMPI DUP1 PUSH4 0x74552552 EQ PUSH2 0x930 JUMPI DUP1 PUSH4 0x7B208769 EQ PUSH2 0x908 JUMPI DUP1 PUSH4 0x8A89C8C9 EQ PUSH2 0x752 JUMPI DUP1 PUSH4 0x8B39989B EQ PUSH2 0x735 JUMPI DUP1 PUSH4 0x8BC53285 EQ PUSH2 0x713 JUMPI DUP1 PUSH4 0x8DA5CB5B EQ PUSH2 0x6DF JUMPI DUP1 PUSH4 0x8EA98117 EQ PUSH2 0x60A JUMPI DUP1 PUSH4 0x918F8674 EQ PUSH2 0x5EE JUMPI DUP1 PUSH4 0x98617E2A EQ PUSH2 0x5D1 JUMPI DUP1 PUSH4 0x98AFCA73 EQ PUSH2 0x399 JUMPI DUP1 PUSH4 0x9ECCACF6 EQ PUSH2 0x372 JUMPI DUP1 PUSH4 0xB9705A03 EQ PUSH2 0x355 JUMPI DUP1 PUSH4 0xC7383BE8 EQ PUSH2 0x338 JUMPI DUP1 PUSH4 0xE17901D8 EQ PUSH2 0x31B JUMPI DUP1 PUSH4 0xF2FDE38B EQ PUSH2 0x2F5 JUMPI PUSH4 0xF9F23186 EQ PUSH2 0x12F JUMPI PUSH0 DUP1 REVERT JUMPDEST CALLVALUE PUSH2 0x2F1 JUMPI PUSH1 0xA0 CALLDATASIZE PUSH1 0x3 NOT ADD SLT PUSH2 0x2F1 JUMPI PUSH2 0x148 PUSH2 0xEE8 JUMP JUMPDEST PUSH1 0x24 CALLDATALOAD PUSH1 0x1 PUSH1 0x1 PUSH1 0xA0 SHL SUB DUP2 AND SWAP1 DUP2 SWAP1 SUB PUSH2 0x2F1 JUMPI PUSH0 MLOAD PUSH1 0x20 PUSH2 0x108E PUSH0 CODECOPY PUSH0 MLOAD SWAP1 PUSH0 MSTORE SLOAD PUSH1 0xFF DUP2 PUSH1 0x40 SHR AND ISZERO SWAP3 PUSH8 0xFFFFFFFFFFFFFFFF DUP3 AND DUP1 ISZERO SWAP1 DUP2 PUSH2 0x2E9 JUMPI JUMPDEST PUSH1 0x1 EQ SWAP1 DUP2 PUSH2 0x2DF JUMPI JUMPDEST ISZERO SWAP1 DUP2 PUSH2 0x2D6 JUMPI JUMPDEST POP PUSH2 0x2C7 JUMPI PUSH8 0xFFFFFFFFFFFFFFFF NOT DUP3 AND PUSH1 0x1 OR PUSH0 MLOAD PUSH1 0x20 PUSH2 0x108E PUSH0 CODECOPY PUSH0 MLOAD SWAP1 PUSH0 MSTORE SSTORE PUSH2 0x1DE SWAP2 DUP5 PUSH2 0x29B JUMPI JUMPDEST POP PUSH2 0x1D1 PUSH2 0x1042 JUMP JUMPDEST PUSH2 0x1D9 PUSH2 0x1042 JUMP JUMPDEST PUSH2 0xF8A JUMP JUMPDEST PUSH20 0x9DDFACA8183C41AD55329BDEED9F6A8D53168B1B PUSH1 0x1 PUSH1 0x1 PUSH1 0x60 SHL SUB PUSH1 0xA0 SHL PUSH0 SLOAD AND OR PUSH0 SSTORE PUSH7 0x38D7EA4C68000 PUSH1 0x1 SSTORE PUSH1 0x2 DUP1 SSTORE PUSH2 0xBB8 PUSH1 0x3 SSTORE PUSH1 0x1 PUSH1 0x1 PUSH1 0x60 SHL SUB PUSH1 0xA0 SHL PUSH1 0x4 SLOAD AND OR PUSH1 0x4 SSTORE PUSH1 0x44 CALLDATALOAD PUSH1 0x5 SSTORE PUSH1 0x64 CALLDATALOAD PUSH1 0x6 SSTORE PUSH1 0x84 CALLDATALOAD PUSH1 0x8 SSTORE PUSH2 0x244 JUMPI STOP JUMPDEST PUSH9 0xFF0000000000000000 NOT PUSH0 MLOAD PUSH1 0x20 PUSH2 0x108E PUSH0 CODECOPY PUSH0 MLOAD SWAP1 PUSH0 MSTORE SLOAD AND PUSH0 MLOAD PUSH1 0x20 PUSH2 0x108E PUSH0 CODECOPY PUSH0 MLOAD SWAP1 PUSH0 MSTORE SSTORE PUSH32 0xC7F505B2F371AE2175EE4913F4499E1F2633A7B5936321EED1CDAEB6115181D2 PUSH1 0x20 PUSH1 0x40 MLOAD PUSH1 0x1 DUP2 MSTORE LOG1 STOP JUMPDEST PUSH9 0xFFFFFFFFFFFFFFFFFF NOT AND PUSH9 0x10000000000000001 OR PUSH0 MLOAD PUSH1 0x20 PUSH2 0x108E PUSH0 CODECOPY PUSH0 MLOAD SWAP1 PUSH0 MSTORE SSTORE PUSH0 PUSH2 0x1C8 JUMP JUMPDEST PUSH4 0xF92EE8A9 PUSH1 0xE0 SHL PUSH0 MSTORE PUSH1 0x4 PUSH0 REVERT JUMPDEST SWAP1 POP ISZERO PUSH0 PUSH2 0x19B JUMP JUMPDEST ADDRESS EXTCODESIZE ISZERO SWAP2 POP PUSH2 0x193 JUMP JUMPDEST DUP6 SWAP2 POP PUSH2 0x189 JUMP JUMPDEST PUSH0 DUP1 REVERT JUMPDEST CALLVALUE PUSH2 0x2F1 JUMPI PUSH1 0x20 CALLDATASIZE PUSH1 0x3 NOT ADD SLT PUSH2 0x2F1 JUMPI PUSH2 0x319 PUSH2 0x311 PUSH2 0xEE8 JUMP JUMPDEST PUSH2 0x1D9 PUSH2 0x100F JUMP JUMPDEST STOP JUMPDEST CALLVALUE PUSH2 0x2F1 JUMPI PUSH0 CALLDATASIZE PUSH1 0x3 NOT ADD SLT PUSH2 0x2F1 JUMPI PUSH1 0x20 PUSH1 0xA SLOAD PUSH1 0x40 MLOAD SWAP1 DUP2 MSTORE RETURN JUMPDEST CALLVALUE PUSH2 0x2F1 JUMPI PUSH0 CALLDATASIZE PUSH1 0x3 NOT ADD SLT PUSH2 0x2F1 JUMPI PUSH1 0x20 PUSH1 0x2 SLOAD PUSH1 0x40 MLOAD SWAP1 DUP2 MSTORE RETURN JUMPDEST CALLVALUE PUSH2 0x2F1 JUMPI PUSH0 CALLDATASIZE PUSH1 0x3 NOT ADD SLT PUSH2 0x2F1 JUMPI PUSH1 0x20 PUSH1 0x9 SLOAD PUSH1 0x40 MLOAD SWAP1 DUP2 MSTORE RETURN JUMPDEST CALLVALUE PUSH2 0x2F1 JUMPI PUSH0 CALLDATASIZE PUSH1 0x3 NOT ADD SLT PUSH2 0x2F1 JUMPI PUSH0 SLOAD PUSH1 0x40 MLOAD PUSH1 0x1 PUSH1 0x1 PUSH1 0xA0 SHL SUB SWAP1 SWAP2 AND DUP2 MSTORE PUSH1 0x20 SWAP1 RETURN JUMPDEST CALLVALUE PUSH2 0x2F1 JUMPI PUSH0 CALLDATASIZE PUSH1 0x3 NOT ADD SLT PUSH2 0x2F1 JUMPI PUSH2 0x3B1 PUSH2 0x100F JUMP JUMPDEST PUSH1 0x7 SLOAD PUSH2 0x5C2 JUMPI PUSH1 0x1 DUP1 PUSH1 0xA0 SHL SUB PUSH0 SLOAD AND PUSH1 0x6 SLOAD PUSH1 0x5 SLOAD SWAP2 PUSH4 0xFFFFFFFF PUSH1 0x2 SLOAD AND SWAP1 PUSH1 0x40 MLOAD SWAP4 PUSH1 0x20 DUP6 ADD DUP6 DUP2 LT PUSH8 0xFFFFFFFFFFFFFFFF DUP3 GT OR PUSH2 0x5AE JUMPI PUSH1 0x40 MSTORE PUSH0 DUP6 MSTORE PUSH1 0x40 MLOAD SWAP5 PUSH4 0x125FA267 PUSH1 0xE3 SHL PUSH1 0x20 DUP8 ADD MSTORE MLOAD ISZERO ISZERO PUSH1 0x24 DUP7 ADD MSTORE PUSH1 0x24 DUP6 MSTORE PUSH2 0x41C PUSH1 0x44 DUP7 PUSH2 0xEFE JUMP JUMPDEST PUSH1 0x40 MLOAD SWAP5 PUSH1 0xC0 DUP7 ADD SWAP5 DUP7 DUP7 LT PUSH8 0xFFFFFFFFFFFFFFFF DUP8 GT OR PUSH2 0x5AE JUMPI PUSH2 0xFFFF SWAP7 PUSH1 0x20 PUSH0 SWAP4 PUSH2 0x104 SWAP4 DUP3 SWAP10 PUSH1 0x40 MSTORE DUP4 MSTORE DUP2 DUP4 ADD SWAP6 DUP7 MSTORE PUSH4 0xFFFFFFFF PUSH1 0x40 DUP5 ADD SWAP9 PUSH1 0x3 DUP11 MSTORE DUP2 PUSH1 0x60 DUP7 ADD PUSH3 0xF4240 DUP2 MSTORE PUSH1 0x80 DUP8 ADD SWAP3 DUP4 MSTORE PUSH1 0xA0 DUP8 ADD SWAP5 DUP6 MSTORE PUSH1 0x40 MLOAD SWAP14 DUP15 SWAP13 DUP14 SWAP12 DUP13 SWAP10 PUSH4 0x4D8E1C2F PUSH1 0xE1 SHL DUP12 MSTORE DUP10 PUSH1 0x4 DUP13 ADD MSTORE MLOAD PUSH1 0x24 DUP12 ADD MSTORE MLOAD PUSH1 0x44 DUP11 ADD MSTORE MLOAD AND PUSH1 0x64 DUP9 ADD MSTORE MLOAD AND PUSH1 0x84 DUP7 ADD MSTORE MLOAD AND PUSH1 0xA4 DUP5 ADD MSTORE MLOAD PUSH1 0xC0 PUSH1 0xC4 DUP5 ADD MSTORE DUP1 MLOAD SWAP2 DUP3 SWAP2 DUP3 PUSH1 0xE4 DUP7 ADD MSTORE ADD DUP5 DUP5 ADD MCOPY DUP2 DUP2 ADD DUP4 ADD DUP5 SWAP1 MSTORE PUSH1 0x1F ADD PUSH1 0x1F NOT AND DUP2 ADD SUB ADD SWAP3 GAS CALL SWAP1 DUP2 ISZERO PUSH2 0x5A3 JUMPI PUSH0 SWAP2 PUSH2 0x571 JUMPI JUMPDEST POP DUP1 PUSH1 0x7 SSTORE PUSH2 0x503 PUSH1 0xB SLOAD PUSH1 0x1 SLOAD SWAP1 PUSH2 0xF77 JUMP JUMPDEST PUSH2 0x523 PUSH2 0x2710 PUSH2 0x515 PUSH1 0x3 SLOAD DUP5 PUSH2 0xF77 JUMP JUMPDEST DIV DUP1 PUSH1 0x9 SSTORE PUSH1 0x2 SLOAD SWAP1 PUSH2 0xF77 JUMP JUMPDEST DUP2 SUB SWAP1 DUP2 GT PUSH2 0x55D JUMPI PUSH32 0x9AC10FB18C93D33AD7B0A941897AEF048D0F8D30756684E82B4552BA12764D45 SWAP2 PUSH1 0x20 SWAP2 PUSH1 0xA SSTORE PUSH1 0x40 MLOAD SWAP1 DUP2 MSTORE LOG1 STOP JUMPDEST PUSH4 0x4E487B71 PUSH1 0xE0 SHL PUSH0 MSTORE PUSH1 0x11 PUSH1 0x4 MSTORE PUSH1 0x24 PUSH0 REVERT JUMPDEST SWAP1 POP PUSH1 0x20 DUP2 RETURNDATASIZE PUSH1 0x20 GT PUSH2 0x59B JUMPI JUMPDEST DUP2 PUSH2 0x58C PUSH1 0x20 SWAP4 DUP4 PUSH2 0xEFE JUMP JUMPDEST DUP2 ADD SUB SLT PUSH2 0x2F1 JUMPI MLOAD DUP2 PUSH2 0x4EF JUMP JUMPDEST RETURNDATASIZE SWAP2 POP PUSH2 0x57F JUMP JUMPDEST PUSH1 0x40 MLOAD RETURNDATASIZE PUSH0 DUP3 RETURNDATACOPY RETURNDATASIZE SWAP1 REVERT JUMPDEST PUSH4 0x4E487B71 PUSH1 0xE0 SHL PUSH0 MSTORE PUSH1 0x41 PUSH1 0x4 MSTORE PUSH1 0x24 PUSH0 REVERT JUMPDEST PUSH4 0xD5BAE95 PUSH1 0xE0 SHL PUSH0 MSTORE PUSH1 0x4 PUSH0 REVERT JUMPDEST CALLVALUE PUSH2 0x2F1 JUMPI PUSH0 CALLDATASIZE PUSH1 0x3 NOT ADD SLT PUSH2 0x2F1 JUMPI PUSH1 0x20 PUSH1 0x3 SLOAD PUSH1 0x40 MLOAD SWAP1 DUP2 MSTORE RETURN JUMPDEST CALLVALUE PUSH2 0x2F1 JUMPI PUSH0 CALLDATASIZE PUSH1 0x3 NOT ADD SLT PUSH2 0x2F1 JUMPI PUSH1 0x20 PUSH1 0x40 MLOAD PUSH2 0x2710 DUP2 MSTORE RETURN JUMPDEST CALLVALUE PUSH2 0x2F1 JUMPI PUSH1 0x20 CALLDATASIZE PUSH1 0x3 NOT ADD SLT PUSH2 0x2F1 JUMPI PUSH2 0x623 PUSH2 0xEE8 JUMP JUMPDEST PUSH0 MLOAD PUSH1 0x20 PUSH2 0x106E PUSH0 CODECOPY PUSH0 MLOAD SWAP1 PUSH0 MSTORE SLOAD PUSH1 0x1 PUSH1 0x1 PUSH1 0xA0 SHL SUB AND CALLER DUP2 EQ ISZERO DUP1 PUSH2 0x6CB JUMPI JUMPDEST PUSH2 0x6A7 JUMPI POP PUSH1 0x1 PUSH1 0x1 PUSH1 0xA0 SHL SUB AND DUP1 ISZERO PUSH2 0x698 JUMPI PUSH1 0x20 DUP2 PUSH32 0xD1A6A14209A385A964D036E404CB5CFB71F4000CDB03C9366292430787261BE6 SWAP3 PUSH1 0x1 PUSH1 0x1 PUSH1 0x60 SHL SUB PUSH1 0xA0 SHL PUSH0 SLOAD AND OR PUSH0 SSTORE PUSH1 0x40 MLOAD SWAP1 DUP2 MSTORE LOG1 STOP JUMPDEST PUSH4 0xD92E233D PUSH1 0xE0 SHL PUSH0 MSTORE PUSH1 0x4 PUSH0 REVERT JUMPDEST PUSH1 0x1 DUP1 PUSH1 0xA0 SHL SUB PUSH0 SLOAD AND SWAP1 PUSH4 0x61DB9C1 PUSH1 0xE0 SHL PUSH0 MSTORE CALLER PUSH1 0x4 MSTORE PUSH1 0x24 MSTORE PUSH1 0x44 MSTORE PUSH1 0x64 PUSH0 REVERT JUMPDEST POP PUSH0 SLOAD PUSH1 0x1 PUSH1 0x1 PUSH1 0xA0 SHL SUB AND CALLER EQ ISZERO PUSH2 0x645 JUMP JUMPDEST CALLVALUE PUSH2 0x2F1 JUMPI PUSH0 CALLDATASIZE PUSH1 0x3 NOT ADD SLT PUSH2 0x2F1 JUMPI PUSH0 MLOAD PUSH1 0x20 PUSH2 0x106E PUSH0 CODECOPY PUSH0 MLOAD SWAP1 PUSH0 MSTORE SLOAD PUSH1 0x40 MLOAD PUSH1 0x1 PUSH1 0x1 PUSH1 0xA0 SHL SUB SWAP1 SWAP2 AND DUP2 MSTORE PUSH1 0x20 SWAP1 RETURN JUMPDEST CALLVALUE PUSH2 0x2F1 JUMPI PUSH0 CALLDATASIZE PUSH1 0x3 NOT ADD SLT PUSH2 0x2F1 JUMPI PUSH1 0x20 PUSH1 0xFF PUSH1 0xD SLOAD AND PUSH1 0x40 MLOAD SWAP1 ISZERO ISZERO DUP2 MSTORE RETURN JUMPDEST CALLVALUE PUSH2 0x2F1 JUMPI PUSH0 CALLDATASIZE PUSH1 0x3 NOT ADD SLT PUSH2 0x2F1 JUMPI PUSH1 0x20 PUSH1 0x5 SLOAD PUSH1 0x40 MLOAD SWAP1 DUP2 MSTORE RETURN JUMPDEST PUSH1 0x40 CALLDATASIZE PUSH1 0x3 NOT ADD SLT PUSH2 0x2F1 JUMPI PUSH1 0x24 CALLDATALOAD PUSH1 0x4 CALLDATALOAD PUSH8 0xFFFFFFFFFFFFFFFF DUP3 GT PUSH2 0x2F1 JUMPI CALLDATASIZE PUSH1 0x23 DUP4 ADD SLT ISZERO PUSH2 0x2F1 JUMPI DUP2 PUSH1 0x4 ADD CALLDATALOAD SWAP2 PUSH2 0x78D DUP4 PUSH2 0xF20 JUMP JUMPDEST SWAP3 PUSH2 0x79B PUSH1 0x40 MLOAD SWAP5 DUP6 PUSH2 0xEFE JUMP JUMPDEST DUP1 DUP5 MSTORE PUSH1 0x24 PUSH1 0x20 DUP6 ADD SWAP2 PUSH1 0x5 SHL DUP4 ADD ADD SWAP2 CALLDATASIZE DUP4 GT PUSH2 0x2F1 JUMPI PUSH1 0x24 ADD SWAP1 JUMPDEST DUP3 DUP3 LT PUSH2 0x8F8 JUMPI POP POP POP PUSH2 0x7CE DUP2 PUSH1 0x1 SLOAD PUSH2 0xF77 JUMP JUMPDEST CALLVALUE SUB PUSH2 0x8E9 JUMPI PUSH1 0x40 MLOAD PUSH1 0x20 DUP2 ADD SWAP1 CALLER DUP3 MSTORE PUSH1 0x20 DUP2 MSTORE PUSH2 0x7EE PUSH1 0x40 DUP3 PUSH2 0xEFE JUMP JUMPDEST MLOAD SWAP1 KECCAK256 SWAP1 PUSH1 0x8 SLOAD SWAP2 PUSH1 0x40 MLOAD PUSH1 0x20 DUP2 ADD SWAP2 DUP3 MSTORE PUSH1 0x20 DUP2 MSTORE PUSH2 0x80F PUSH1 0x40 DUP3 PUSH2 0xEFE JUMP JUMPDEST MLOAD SWAP1 KECCAK256 SWAP1 PUSH0 SWAP2 JUMPDEST DUP5 MLOAD DUP4 LT ISZERO PUSH2 0x858 JUMPI PUSH2 0x829 DUP4 DUP7 PUSH2 0xFFB JUMP JUMPDEST MLOAD SWAP1 DUP2 DUP2 LT ISZERO PUSH2 0x847 JUMPI PUSH0 MSTORE PUSH1 0x20 MSTORE PUSH1 0x1 PUSH1 0x40 PUSH0 KECCAK256 JUMPDEST SWAP3 ADD SWAP2 PUSH2 0x816 JUMP JUMPDEST SWAP1 PUSH0 MSTORE PUSH1 0x20 MSTORE PUSH1 0x1 PUSH1 0x40 PUSH0 KECCAK256 PUSH2 0x83F JUMP JUMPDEST DUP4 SUB PUSH2 0x8DA JUMPI PUSH0 JUMPDEST DUP2 DUP2 LT PUSH2 0x896 JUMPI POP PUSH1 0x40 MLOAD SWAP1 DUP2 MSTORE PUSH32 0x668F5B446EB814FE35B3206F43F14BD8567BA04DDAF7A3EE56516929AB22CCB PUSH1 0x20 CALLER SWAP3 LOG2 STOP JUMPDEST PUSH1 0xB SLOAD SWAP1 PUSH9 0x10000000000000000 DUP3 LT ISZERO PUSH2 0x5AE JUMPI PUSH2 0x8BC DUP3 PUSH1 0x1 DUP1 SWAP5 ADD PUSH1 0xB SSTORE PUSH2 0xED0 JUMP JUMPDEST DUP2 SLOAD SWAP1 PUSH1 0x3 SHL SWAP1 CALLER DUP3 SHL SWAP2 DUP6 DUP1 PUSH1 0xA0 SHL SUB SWAP1 SHL NOT AND OR SWAP1 SSTORE ADD PUSH2 0x860 JUMP JUMPDEST PUSH4 0x9BDE339 PUSH1 0xE0 SHL PUSH0 MSTORE PUSH1 0x4 PUSH0 REVERT JUMPDEST PUSH4 0x44044A5 PUSH1 0xE2 SHL PUSH0 MSTORE PUSH1 0x4 PUSH0 REVERT JUMPDEST DUP2 CALLDATALOAD DUP2 MSTORE PUSH1 0x20 SWAP2 DUP3 ADD SWAP2 ADD PUSH2 0x7B8 JUMP JUMPDEST CALLVALUE PUSH2 0x2F1 JUMPI PUSH0 CALLDATASIZE PUSH1 0x3 NOT ADD SLT PUSH2 0x2F1 JUMPI PUSH1 0x4 SLOAD PUSH1 0x40 MLOAD PUSH1 0x1 PUSH1 0x1 PUSH1 0xA0 SHL SUB SWAP1 SWAP2 AND DUP2 MSTORE PUSH1 0x20 SWAP1 RETURN JUMPDEST CALLVALUE PUSH2 0x2F1 JUMPI PUSH0 CALLDATASIZE PUSH1 0x3 NOT ADD SLT PUSH2 0x2F1 JUMPI PUSH2 0x948 PUSH2 0x100F JUMP JUMPDEST PUSH1 0xA SLOAD DUP1 ISZERO PUSH2 0xA74 JUMPI PUSH1 0xFF PUSH1 0xD SLOAD AND ISZERO PUSH2 0xA65 JUMPI DUP1 SELFBALANCE LT PUSH2 0xA08 JUMPI PUSH1 0x4 SLOAD PUSH1 0x1 PUSH1 0x1 PUSH1 0xA0 SHL SUB AND DUP1 ISZERO PUSH2 0x9CA JUMPI PUSH0 DUP1 DUP1 SWAP4 DUP2 SWAP4 GAS CALL PUSH2 0x985 PUSH2 0xF38 JUMP JUMPDEST POP ISZERO PUSH2 0x9BB JUMPI PUSH0 PUSH1 0xA SSTORE PUSH32 0x5689F9EF5BE164071958E27DCA7A9DF000791288FB23C621501D67B6A808848B PUSH1 0x20 PUSH1 0x40 MLOAD PUSH0 DUP2 MSTORE LOG1 STOP JUMPDEST PUSH4 0x12171D83 PUSH1 0xE3 SHL PUSH0 MSTORE PUSH1 0x4 PUSH0 REVERT JUMPDEST PUSH1 0x40 MLOAD PUSH3 0x461BCD PUSH1 0xE5 SHL DUP2 MSTORE PUSH1 0x20 PUSH1 0x4 DUP3 ADD MSTORE PUSH1 0x16 PUSH1 0x24 DUP3 ADD MSTORE PUSH22 0x10DA185C9A5D1E481DD85B1B195D081B9BDD081CD95D PUSH1 0x52 SHL PUSH1 0x44 DUP3 ADD MSTORE PUSH1 0x64 SWAP1 REVERT JUMPDEST PUSH1 0x40 MLOAD PUSH3 0x461BCD PUSH1 0xE5 SHL DUP2 MSTORE PUSH1 0x20 PUSH1 0x4 DUP3 ADD MSTORE PUSH1 0x2F PUSH1 0x24 DUP3 ADD MSTORE PUSH32 0x496E73756666696369656E7420636F6E74726163742062616C616E636520666F PUSH1 0x44 DUP3 ADD MSTORE PUSH15 0x7220636861726974792066756E6473 PUSH1 0x88 SHL PUSH1 0x64 DUP3 ADD MSTORE PUSH1 0x84 SWAP1 REVERT JUMPDEST PUSH4 0x30D747F9 PUSH1 0xE2 SHL PUSH0 MSTORE PUSH1 0x4 PUSH0 REVERT JUMPDEST PUSH4 0x356680B7 PUSH1 0xE0 SHL PUSH0 MSTORE PUSH1 0x4 PUSH0 REVERT JUMPDEST CALLVALUE PUSH2 0x2F1 JUMPI PUSH0 CALLDATASIZE PUSH1 0x3 NOT ADD SLT PUSH2 0x2F1 JUMPI PUSH2 0xA9B PUSH2 0x100F JUMP JUMPDEST PUSH0 MLOAD PUSH1 0x20 PUSH2 0x106E PUSH0 CODECOPY PUSH0 MLOAD SWAP1 PUSH0 MSTORE DUP1 SLOAD PUSH1 0x1 PUSH1 0x1 PUSH1 0xA0 SHL SUB NOT DUP2 AND SWAP1 SWAP2 SSTORE PUSH0 SWAP1 PUSH1 0x1 PUSH1 0x1 PUSH1 0xA0 SHL SUB AND PUSH32 0x8BE0079C531659141344CD1FD0A4F28419497F9722A3DAAFE3B4186F6B6457E0 DUP3 DUP1 LOG3 STOP JUMPDEST CALLVALUE PUSH2 0x2F1 JUMPI PUSH0 CALLDATASIZE PUSH1 0x3 NOT ADD SLT PUSH2 0x2F1 JUMPI CALLER PUSH0 MSTORE PUSH1 0xC PUSH1 0x20 MSTORE PUSH1 0xFF PUSH1 0x40 PUSH0 KECCAK256 SLOAD AND ISZERO PUSH2 0xBB0 JUMPI SELFBALANCE PUSH1 0x9 SLOAD GT PUSH2 0xB6B JUMPI CALLER PUSH0 MSTORE PUSH1 0xC PUSH1 0x20 MSTORE PUSH1 0x40 PUSH0 KECCAK256 PUSH1 0xFF NOT DUP2 SLOAD AND SWAP1 SSTORE PUSH0 DUP1 DUP1 DUP1 PUSH1 0x9 SLOAD CALLER GAS CALL PUSH2 0xB3E PUSH2 0xF38 JUMP JUMPDEST POP ISZERO PUSH2 0x9BB JUMPI CALLER PUSH32 0x9F058359C5A4D11027CE8027F5F0F4DF210CB3EBAC92F2C584170ED78624DD8 PUSH0 DUP1 LOG2 STOP JUMPDEST PUSH1 0x40 MLOAD PUSH3 0x461BCD PUSH1 0xE5 SHL DUP2 MSTORE PUSH1 0x20 PUSH1 0x4 DUP3 ADD MSTORE PUSH1 0x1D PUSH1 0x24 DUP3 ADD MSTORE PUSH32 0x496E73756666696369656E7420636F6E74726163742062616C616E6365000000 PUSH1 0x44 DUP3 ADD MSTORE PUSH1 0x64 SWAP1 REVERT JUMPDEST PUSH4 0x58CD4FC1 PUSH1 0xE1 SHL PUSH0 MSTORE PUSH1 0x4 PUSH0 REVERT JUMPDEST CALLVALUE PUSH2 0x2F1 JUMPI PUSH1 0x20 CALLDATASIZE PUSH1 0x3 NOT ADD SLT PUSH2 0x2F1 JUMPI PUSH1 0x1 PUSH1 0x1 PUSH1 0xA0 SHL SUB PUSH2 0xBE0 PUSH2 0xEE8 JUMP JUMPDEST AND PUSH0 MSTORE PUSH1 0xC PUSH1 0x20 MSTORE PUSH1 0x20 PUSH1 0xFF PUSH1 0x40 PUSH0 KECCAK256 SLOAD AND PUSH1 0x40 MLOAD SWAP1 ISZERO ISZERO DUP2 MSTORE RETURN JUMPDEST CALLVALUE PUSH2 0x2F1 JUMPI PUSH1 0x20 CALLDATASIZE PUSH1 0x3 NOT ADD SLT PUSH2 0x2F1 JUMPI PUSH1 0x4 CALLDATALOAD PUSH1 0xB SLOAD DUP2 LT ISZERO PUSH2 0x2F1 JUMPI PUSH2 0xC25 PUSH1 0x20 SWAP2 PUSH2 0xED0 JUMP JUMPDEST SWAP1 SLOAD PUSH1 0x40 MLOAD PUSH1 0x3 SWAP3 SWAP1 SWAP3 SHL SHR PUSH1 0x1 PUSH1 0x1 PUSH1 0xA0 SHL SUB AND DUP2 MSTORE RETURN JUMPDEST CALLVALUE PUSH2 0x2F1 JUMPI PUSH0 CALLDATASIZE PUSH1 0x3 NOT ADD SLT PUSH2 0x2F1 JUMPI PUSH1 0x20 PUSH1 0x8 SLOAD PUSH1 0x40 MLOAD SWAP1 DUP2 MSTORE RETURN JUMPDEST CALLVALUE PUSH2 0x2F1 JUMPI PUSH1 0x40 CALLDATASIZE PUSH1 0x3 NOT ADD SLT PUSH2 0x2F1 JUMPI PUSH1 0x24 CALLDATALOAD PUSH8 0xFFFFFFFFFFFFFFFF DUP2 GT PUSH2 0x2F1 JUMPI CALLDATASIZE PUSH1 0x23 DUP3 ADD SLT ISZERO PUSH2 0x2F1 JUMPI DUP1 PUSH1 0x4 ADD CALLDATALOAD PUSH8 0xFFFFFFFFFFFFFFFF DUP2 GT PUSH2 0x2F1 JUMPI CALLDATASIZE PUSH1 0x24 DUP3 PUSH1 0x5 SHL DUP5 ADD ADD GT PUSH2 0x2F1 JUMPI PUSH0 SLOAD PUSH1 0x1 PUSH1 0x1 PUSH1 0xA0 SHL SUB AND CALLER DUP2 SWAP1 SUB PUSH2 0xE66 JUMPI POP PUSH1 0x7 SLOAD PUSH1 0x4 CALLDATALOAD SUB PUSH2 0xE57 JUMPI PUSH1 0x2 SLOAD DUP1 DUP3 SUB PUSH2 0xE48 JUMPI PUSH2 0xCF7 PUSH2 0xCE1 DUP3 PUSH2 0xF20 JUMP JUMPDEST SWAP2 PUSH2 0xCEF PUSH1 0x40 MLOAD SWAP4 DUP5 PUSH2 0xEFE JUMP JUMPDEST DUP1 DUP4 MSTORE PUSH2 0xF20 JUMP JUMPDEST PUSH1 0x20 DUP3 ADD SWAP4 SWAP1 PUSH1 0x1F NOT ADD CALLDATASIZE DUP6 CALLDATACOPY PUSH0 SWAP3 JUMPDEST PUSH1 0x2 SLOAD DUP5 LT ISZERO PUSH2 0x319 JUMPI DUP1 DUP5 LT ISZERO PUSH2 0xE34 JUMPI PUSH1 0x24 DUP5 PUSH1 0x5 SHL DUP4 ADD ADD CALLDATALOAD JUMPDEST PUSH1 0xB SLOAD DUP1 ISZERO PUSH2 0xE20 JUMPI PUSH2 0xD38 SWAP1 DUP3 MOD PUSH2 0xED0 JUMP JUMPDEST SWAP1 SLOAD PUSH1 0x3 SWAP2 SWAP1 SWAP2 SHL SHR PUSH1 0x1 PUSH1 0x1 PUSH1 0xA0 SHL SUB AND PUSH0 DUP2 DUP2 MSTORE PUSH1 0xC PUSH1 0x20 MSTORE PUSH1 0x40 SWAP1 KECCAK256 SLOAD PUSH1 0xFF AND ISZERO PUSH2 0xD75 JUMPI POP PUSH1 0x1 DUP2 ADD DUP1 SWAP2 GT PUSH2 0x55D JUMPI PUSH0 NOT SWAP1 MOD PUSH2 0xD24 JUMP JUMPDEST DUP1 SWAP2 POP PUSH0 SWAP6 SWAP3 SWAP6 MSTORE PUSH1 0xC PUSH1 0x20 MSTORE PUSH1 0x40 PUSH0 KECCAK256 PUSH1 0x1 PUSH1 0xFF NOT DUP3 SLOAD AND OR SWAP1 SSTORE PUSH2 0xD9B DUP3 DUP6 PUSH2 0xFFB JUMP JUMPDEST MSTORE PUSH1 0x1 PUSH1 0xFF NOT PUSH1 0xD SLOAD AND OR PUSH1 0xD SSTORE PUSH1 0x40 MLOAD PUSH1 0x20 DUP2 ADD PUSH1 0x20 DUP3 MSTORE DUP5 MLOAD DUP1 SWAP2 MSTORE PUSH1 0x40 DUP3 ADD SWAP1 DUP8 SWAP1 PUSH0 SWAP1 JUMPDEST DUP1 DUP3 LT PUSH2 0xDFE JUMPI POP POP POP DUP2 PUSH1 0x1 SWAP4 SWAP3 PUSH32 0x32A1B5731A757F192A06CA973715CA4DBC42C2D15323CABAA74E0A2D5DC088E4 SWAP3 SUB SWAP1 LOG1 ADD SWAP3 PUSH2 0xD07 JUMP JUMPDEST DUP3 MLOAD PUSH1 0x1 PUSH1 0x1 PUSH1 0xA0 SHL SUB AND DUP5 MSTORE PUSH1 0x20 SWAP4 DUP5 ADD SWAP4 SWAP1 SWAP3 ADD SWAP2 PUSH1 0x1 SWAP1 SWAP2 ADD SWAP1 PUSH2 0xDC3 JUMP JUMPDEST PUSH4 0x4E487B71 PUSH1 0xE0 SHL PUSH0 MSTORE PUSH1 0x12 PUSH1 0x4 MSTORE PUSH1 0x24 PUSH0 REVERT JUMPDEST PUSH4 0x4E487B71 PUSH1 0xE0 SHL PUSH0 MSTORE PUSH1 0x32 PUSH1 0x4 MSTORE PUSH1 0x24 PUSH0 REVERT JUMPDEST PUSH4 0x1F9EFADB PUSH1 0xE1 SHL PUSH0 MSTORE PUSH1 0x4 PUSH0 REVERT JUMPDEST PUSH4 0x41ABC801 PUSH1 0xE0 SHL PUSH0 MSTORE PUSH1 0x4 PUSH0 REVERT JUMPDEST PUSH4 0x73E64FD PUSH1 0xE2 SHL PUSH0 MSTORE CALLER PUSH1 0x4 MSTORE PUSH1 0x24 MSTORE PUSH1 0x44 PUSH0 REVERT JUMPDEST CALLVALUE PUSH2 0x2F1 JUMPI PUSH0 CALLDATASIZE PUSH1 0x3 NOT ADD SLT PUSH2 0x2F1 JUMPI PUSH1 0x20 PUSH1 0x7 SLOAD PUSH1 0x40 MLOAD SWAP1 DUP2 MSTORE RETURN JUMPDEST CALLVALUE PUSH2 0x2F1 JUMPI PUSH0 CALLDATASIZE PUSH1 0x3 NOT ADD SLT PUSH2 0x2F1 JUMPI PUSH1 0x20 PUSH1 0x1 SLOAD PUSH1 0x40 MLOAD SWAP1 DUP2 MSTORE RETURN JUMPDEST CALLVALUE PUSH2 0x2F1 JUMPI PUSH0 CALLDATASIZE PUSH1 0x3 NOT ADD SLT PUSH2 0x2F1 JUMPI PUSH1 0x20 SWAP1 PUSH1 0x6 SLOAD DUP2 MSTORE RETURN JUMPDEST PUSH1 0xB SLOAD DUP2 LT ISZERO PUSH2 0xE34 JUMPI PUSH1 0xB PUSH0 MSTORE PUSH1 0x20 PUSH0 KECCAK256 ADD SWAP1 PUSH0 SWAP1 JUMP JUMPDEST PUSH1 0x4 CALLDATALOAD SWAP1 PUSH1 0x1 PUSH1 0x1 PUSH1 0xA0 SHL SUB DUP3 AND DUP3 SUB PUSH2 0x2F1 JUMPI JUMP JUMPDEST SWAP1 PUSH1 0x1F DUP1 NOT SWAP2 ADD AND DUP2 ADD SWAP1 DUP2 LT PUSH8 0xFFFFFFFFFFFFFFFF DUP3 GT OR PUSH2 0x5AE JUMPI PUSH1 0x40 MSTORE JUMP JUMPDEST PUSH8 0xFFFFFFFFFFFFFFFF DUP2 GT PUSH2 0x5AE JUMPI PUSH1 0x5 SHL PUSH1 0x20 ADD SWAP1 JUMP JUMPDEST RETURNDATASIZE ISZERO PUSH2 0xF72 JUMPI RETURNDATASIZE SWAP1 PUSH8 0xFFFFFFFFFFFFFFFF DUP3 GT PUSH2 0x5AE JUMPI PUSH1 0x40 MLOAD SWAP2 PUSH2 0xF67 PUSH1 0x1F DUP3 ADD PUSH1 0x1F NOT AND PUSH1 0x20 ADD DUP5 PUSH2 0xEFE JUMP JUMPDEST DUP3 MSTORE RETURNDATASIZE PUSH0 PUSH1 0x20 DUP5 ADD RETURNDATACOPY JUMP JUMPDEST PUSH1 0x60 SWAP1 JUMP JUMPDEST DUP2 DUP2 MUL SWAP3 SWAP2 DUP2 ISZERO SWAP2 DUP5 DIV EQ OR ISZERO PUSH2 0x55D JUMPI JUMP JUMPDEST PUSH1 0x1 PUSH1 0x1 PUSH1 0xA0 SHL SUB AND DUP1 ISZERO PUSH2 0xFE8 JUMPI PUSH0 MLOAD PUSH1 0x20 PUSH2 0x106E PUSH0 CODECOPY PUSH0 MLOAD SWAP1 PUSH0 MSTORE DUP1 SLOAD PUSH1 0x1 PUSH1 0x1 PUSH1 0xA0 SHL SUB NOT DUP2 AND DUP4 OR SWAP1 SWAP2 SSTORE PUSH1 0x1 PUSH1 0x1 PUSH1 0xA0 SHL SUB AND PUSH32 0x8BE0079C531659141344CD1FD0A4F28419497F9722A3DAAFE3B4186F6B6457E0 PUSH0 DUP1 LOG3 JUMP JUMPDEST PUSH4 0x1E4FBDF7 PUSH1 0xE0 SHL PUSH0 MSTORE PUSH0 PUSH1 0x4 MSTORE PUSH1 0x24 PUSH0 REVERT JUMPDEST DUP1 MLOAD DUP3 LT ISZERO PUSH2 0xE34 JUMPI PUSH1 0x20 SWAP2 PUSH1 0x5 SHL ADD ADD SWAP1 JUMP JUMPDEST PUSH0 MLOAD PUSH1 0x20 PUSH2 0x106E PUSH0 CODECOPY PUSH0 MLOAD SWAP1 PUSH0 MSTORE SLOAD PUSH1 0x1 PUSH1 0x1 PUSH1 0xA0 SHL SUB AND CALLER SUB PUSH2 0x102F JUMPI JUMP JUMPDEST PUSH4 0x118CDAA7 PUSH1 0xE0 SHL PUSH0 MSTORE CALLER PUSH1 0x4 MSTORE PUSH1 0x24 PUSH0 REVERT JUMPDEST PUSH1 0xFF PUSH0 MLOAD PUSH1 0x20 PUSH2 0x108E PUSH0 CODECOPY PUSH0 MLOAD SWAP1 PUSH0 MSTORE SLOAD PUSH1 0x40 SHR AND ISZERO PUSH2 0x105E JUMPI JUMP JUMPDEST PUSH4 0x1AFCD79F PUSH1 0xE3 SHL PUSH0 MSTORE PUSH1 0x4 PUSH0 REVERT INVALID SWAP1 AND 0xD0 SWAP14 PUSH19 0xD40FDAE2FD8CEAC6B6234C7706214FD39C1CD1 DUPN 0x9 LOG0 MSTORE DUP13 NOT SWAP4 STOP CREATE 0xC5 PUSH31 0x16840DF040F15088DC2F81FE391C3923BEC73E23A9662EFC9C229C6A00A264 PUSH10 0x70667358221220F856E7 MUL PUSH24 0xF81E88C99771502B6A8AD444179617E01BD60CC7E8C8DAF9 DATALOADN 0x6863 PUSH5 0x736F6C6343 STOP ADDMOD 0x1E STOP CALLER "
				},
				"gasEstimates": {
					"creation": {
						"codeDepositCost": "864600",
						"executionCost": "911",
						"totalCost": "865511"
					},
					"external": {
						"DENOMINATOR()": "505",
						"buyTicket(uint256,bytes32[])": "infinite",
						"charityFunds()": "2740",
						"charityWallet()": "2500",
						"claimCharityFunds()": "infinite",
						"claimPrize()": "infinite",
						"initialize(address,address,uint256,bytes32,bytes32)": "infinite",
						"merkleRoot()": "2344",
						"numOfWinners()": "2718",
						"owner()": "infinite",
						"participants(uint256)": "6743",
						"pricePersentageBPS()": "2630",
						"rawFulfillRandomWords(uint256,uint256[])": "infinite",
						"renounceOwnership()": "28294",
						"requestRandomWinners()": "infinite",
						"s_vrfCoordinator()": "2697",
						"setCoordinator(address)": "infinite",
						"ticketPrice()": "2278",
						"transferOwnership(address)": "28759",
						"vrfKeyHash()": "2248",
						"vrfRequestId()": "2300",
						"vrfSubsciptionId()": "2520",
						"winnerReward()": "2696",
						"winners(address)": "2550",
						"winnersSelected()": "2554"
					},
					"internal": {
						"fulfillRandomWords(uint256,uint256[] calldata)": "infinite"
					}
				},
				"methodIdentifiers": {
					"DENOMINATOR()": "918f8674",
					"buyTicket(uint256,bytes32[])": "8a89c8c9",
					"charityFunds()": "e17901d8",
					"charityWallet()": "7b208769",
					"claimCharityFunds()": "74552552",
					"claimPrize()": "70740ac9",
					"initialize(address,address,uint256,bytes32,bytes32)": "f9f23186",
					"merkleRoot()": "2eb4a7ab",
					"numOfWinners()": "c7383be8",
					"owner()": "8da5cb5b",
					"participants(uint256)": "35c1d349",
					"pricePersentageBPS()": "98617e2a",
					"rawFulfillRandomWords(uint256,uint256[])": "1fe543e3",
					"renounceOwnership()": "715018a6",
					"requestRandomWinners()": "98afca73",
					"s_vrfCoordinator()": "9eccacf6",
					"setCoordinator(address)": "8ea98117",
					"ticketPrice()": "1209b1f6",
					"transferOwnership(address)": "f2fde38b",
					"vrfKeyHash()": "041d443e",
					"vrfRequestId()": "18a7ea5f",
					"vrfSubsciptionId()": "8b39989b",
					"winnerReward()": "b9705a03",
					"winners(address)": "6bd5450a",
					"winnersSelected()": "8bc53285"
				}
			},
			"storageLayout": {
				"storage": [
					{
						"astId": 2336,
						"contract": "src/CharityRaffle.sol:CharityRaffle",
						"label": "s_vrfCoordinator",
						"offset": 0,
						"slot": "0",
						"type": "t_contract(IVRFCoordinatorV2Plus)17"
					},
					{
						"astId": 1800,
						"contract": "src/CharityRaffle.sol:CharityRaffle",
						"label": "ticketPrice",
						"offset": 0,
						"slot": "1",
						"type": "t_uint256"
					},
					{
						"astId": 1802,
						"contract": "src/CharityRaffle.sol:CharityRaffle",
						"label": "numOfWinners",
						"offset": 0,
						"slot": "2",
						"type": "t_uint256"
					},
					{
						"astId": 1804,
						"contract": "src/CharityRaffle.sol:CharityRaffle",
						"label": "pricePersentageBPS",
						"offset": 0,
						"slot": "3",
						"type": "t_uint256"
					},
					{
						"astId": 1806,
						"contract": "src/CharityRaffle.sol:CharityRaffle",
						"label": "charityWallet",
						"offset": 0,
						"slot": "4",
						"type": "t_address"
					},
					{
						"astId": 1808,
						"contract": "src/CharityRaffle.sol:CharityRaffle",
						"label": "vrfSubsciptionId",
						"offset": 0,
						"slot": "5",
						"type": "t_uint256"
					},
					{
						"astId": 1810,
						"contract": "src/CharityRaffle.sol:CharityRaffle",
						"label": "vrfKeyHash",
						"offset": 0,
						"slot": "6",
						"type": "t_bytes32"
					},
					{
						"astId": 1812,
						"contract": "src/CharityRaffle.sol:CharityRaffle",
						"label": "vrfRequestId",
						"offset": 0,
						"slot": "7",
						"type": "t_uint256"
					},
					{
						"astId": 1814,
						"contract": "src/CharityRaffle.sol:CharityRaffle",
						"label": "merkleRoot",
						"offset": 0,
						"slot": "8",
						"type": "t_bytes32"
					},
					{
						"astId": 1816,
						"contract": "src/CharityRaffle.sol:CharityRaffle",
						"label": "winnerReward",
						"offset": 0,
						"slot": "9",
						"type": "t_uint256"
					},
					{
						"astId": 1818,
						"contract": "src/CharityRaffle.sol:CharityRaffle",
						"label": "charityFunds",
						"offset": 0,
						"slot": "10",
						"type": "t_uint256"
					},
					{
						"astId": 1821,
						"contract": "src/CharityRaffle.sol:CharityRaffle",
						"label": "participants",
						"offset": 0,
						"slot": "11",
						"type": "t_array(t_address)dyn_storage"
					},
					{
						"astId": 1825,
						"contract": "src/CharityRaffle.sol:CharityRaffle",
						"label": "winners",
						"offset": 0,
						"slot": "12",
						"type": "t_mapping(t_address,t_bool)"
					},
					{
						"astId": 1827,
						"contract": "src/CharityRaffle.sol:CharityRaffle",
						"label": "winnersSelected",
						"offset": 0,
						"slot": "13",
						"type": "t_bool"
					}
				],
				"types": {
					"t_address": {
						"encoding": "inplace",
						"label": "address",
						"numberOfBytes": "20"
					},
					"t_array(t_address)dyn_storage": {
						"base": "t_address",
						"encoding": "dynamic_array",
						"label": "address[]",
						"numberOfBytes": "32"
					},
					"t_bool": {
						"encoding": "inplace",
						"label": "bool",
						"numberOfBytes": "1"
					},
					"t_bytes32": {
						"encoding": "inplace",
						"label": "bytes32",
						"numberOfBytes": "32"
					},
					"t_contract(IVRFCoordinatorV2Plus)17": {
						"encoding": "inplace",
						"label": "contract IVRFCoordinatorV2Plus",
						"numberOfBytes": "20"
					},
					"t_mapping(t_address,t_bool)": {
						"encoding": "mapping",
						"key": "t_address",
						"label": "mapping(address => bool)",
						"numberOfBytes": "32",
						"value": "t_bool"
					},
					"t_uint256": {
						"encoding": "inplace",
						"label": "uint256",
						"numberOfBytes": "32"
					}
				}
			},
			"userdoc": {
				"kind": "user",
				"methods": {
					"setCoordinator(address)": {
						"notice": "Sets the VRF Coordinator addressThis method should only be callable by the coordinator or contract owner"
					}
				},
				"version": 1
			}
		}
	}
}